{
	"Mini project/Mini project.sol": {
		"StudentSavingsWallet": {
			"abi": [
				{
					"inputs": [],
					"stateMutability": "nonpayable",
					"type": "constructor"
				},
				{
					"anonymous": false,
					"inputs": [
						{
							"indexed": true,
							"internalType": "address",
							"name": "user",
							"type": "address"
						},
						{
							"indexed": false,
							"internalType": "uint256",
							"name": "amount",
							"type": "uint256"
						}
					],
					"name": "DepositMade",
					"type": "event"
				},
				{
					"anonymous": false,
					"inputs": [
						{
							"indexed": true,
							"internalType": "address",
							"name": "user",
							"type": "address"
						},
						{
							"indexed": false,
							"internalType": "uint256",
							"name": "amount",
							"type": "uint256"
						}
					],
					"name": "WithdrawalMade",
					"type": "event"
				},
				{
					"inputs": [
						{
							"internalType": "address",
							"name": "",
							"type": "address"
						}
					],
					"name": "balances",
					"outputs": [
						{
							"internalType": "uint256",
							"name": "",
							"type": "uint256"
						}
					],
					"stateMutability": "view",
					"type": "function"
				},
				{
					"inputs": [],
					"name": "deposit",
					"outputs": [],
					"stateMutability": "payable",
					"type": "function"
				},
				{
					"inputs": [],
					"name": "getBalance",
					"outputs": [
						{
							"internalType": "uint256",
							"name": "",
							"type": "uint256"
						}
					],
					"stateMutability": "view",
					"type": "function"
				},
				{
					"inputs": [],
					"name": "getHistory",
					"outputs": [
						{
							"components": [
								{
									"internalType": "string",
									"name": "txType",
									"type": "string"
								},
								{
									"internalType": "uint256",
									"name": "amount",
									"type": "uint256"
								},
								{
									"internalType": "uint256",
									"name": "timestamp",
									"type": "uint256"
								}
							],
							"internalType": "struct StudentSavingsWallet.Transaction[]",
							"name": "",
							"type": "tuple[]"
						}
					],
					"stateMutability": "view",
					"type": "function"
				},
				{
					"inputs": [],
					"name": "minDeposit",
					"outputs": [
						{
							"internalType": "uint256",
							"name": "",
							"type": "uint256"
						}
					],
					"stateMutability": "view",
					"type": "function"
				},
				{
					"inputs": [],
					"name": "owner",
					"outputs": [
						{
							"internalType": "address",
							"name": "",
							"type": "address"
						}
					],
					"stateMutability": "view",
					"type": "function"
				},
				{
					"inputs": [
						{
							"internalType": "address",
							"name": "",
							"type": "address"
						},
						{
							"internalType": "uint256",
							"name": "",
							"type": "uint256"
						}
					],
					"name": "transactionHistory",
					"outputs": [
						{
							"internalType": "string",
							"name": "txType",
							"type": "string"
						},
						{
							"internalType": "uint256",
							"name": "amount",
							"type": "uint256"
						},
						{
							"internalType": "uint256",
							"name": "timestamp",
							"type": "uint256"
						}
					],
					"stateMutability": "view",
					"type": "function"
				},
				{
					"inputs": [
						{
							"internalType": "uint256",
							"name": "_amount",
							"type": "uint256"
						}
					],
					"name": "withdraw",
					"outputs": [],
					"stateMutability": "nonpayable",
					"type": "function"
				}
			],
			"devdoc": {
				"kind": "dev",
				"methods": {},
				"version": 1
			},
			"evm": {
				"assembly": "    /* \"Mini project/Mini project.sol\":108:11051  contract StudentSavingsWallet { // Requirement: Name the contract [cite: 18]... */\n  mstore(0x40, 0x80)\n    /* \"Mini project/Mini project.sol\":289:299  0.01 ether */\n  0x2386f26fc10000\n    /* \"Mini project/Mini project.sol\":261:299  uint256 public minDeposit = 0.01 ether */\n  0x01\n  sstore\n    /* \"Mini project/Mini project.sol\":1644:1861  constructor() {... */\n  callvalue\n  dup1\n  iszero\n  tag_1\n  jumpi\n  revert(0x00, 0x00)\ntag_1:\n  pop\n    /* \"Mini project/Mini project.sol\":1756:1766  msg.sender */\n  caller\n    /* \"Mini project/Mini project.sol\":1748:1753  owner */\n  0x00\n  0x00\n    /* \"Mini project/Mini project.sol\":1748:1766  owner = msg.sender */\n  0x0100\n  exp\n  dup2\n  sload\n  dup2\n  0xffffffffffffffffffffffffffffffffffffffff\n  mul\n  not\n  and\n  swap1\n  dup4\n  0xffffffffffffffffffffffffffffffffffffffff\n  and\n  mul\n  or\n  swap1\n  sstore\n  pop\n    /* \"Mini project/Mini project.sol\":108:11051  contract StudentSavingsWallet { // Requirement: Name the contract [cite: 18]... */\n  dataSize(sub_0)\n  dup1\n  dataOffset(sub_0)\n  0x00\n  codecopy\n  0x00\n  return\nstop\n\nsub_0: assembly {\n        /* \"Mini project/Mini project.sol\":108:11051  contract StudentSavingsWallet { // Requirement: Name the contract [cite: 18]... */\n      mstore(0x40, 0x80)\n      jumpi(tag_1, lt(calldatasize, 0x04))\n      shr(0xe0, calldataload(0x00))\n      dup1\n      0x8da5cb5b\n      gt\n      tag_10\n      jumpi\n      dup1\n      0x8da5cb5b\n      eq\n      tag_6\n      jumpi\n      dup1\n      0xaa15efc8\n      eq\n      tag_7\n      jumpi\n      dup1\n      0xd0e30db0\n      eq\n      tag_8\n      jumpi\n      dup1\n      0xe3abc2bc\n      eq\n      tag_9\n      jumpi\n      jump(tag_1)\n    tag_10:\n      dup1\n      0x12065fe0\n      eq\n      tag_2\n      jumpi\n      dup1\n      0x27e235e3\n      eq\n      tag_3\n      jumpi\n      dup1\n      0x2e1a7d4d\n      eq\n      tag_4\n      jumpi\n      dup1\n      0x41b3d185\n      eq\n      tag_5\n      jumpi\n    tag_1:\n      revert(0x00, 0x00)\n        /* \"Mini project/Mini project.sol\":8474:9194  function getBalance() public view returns (uint256) {... */\n    tag_2:\n      callvalue\n      dup1\n      iszero\n      tag_11\n      jumpi\n      revert(0x00, 0x00)\n    tag_11:\n      pop\n      tag_12\n      tag_13\n      jump\t// in\n    tag_12:\n      mload(0x40)\n      tag_14\n      swap2\n      swap1\n      tag_15\n      jump\t// in\n    tag_14:\n      mload(0x40)\n      dup1\n      swap2\n      sub\n      swap1\n      return\n        /* \"Mini project/Mini project.sol\":812:855  mapping(address => uint256) public balances */\n    tag_3:\n      callvalue\n      dup1\n      iszero\n      tag_16\n      jumpi\n      revert(0x00, 0x00)\n    tag_16:\n      pop\n      tag_17\n      0x04\n      dup1\n      calldatasize\n      sub\n      dup2\n      add\n      swap1\n      tag_18\n      swap2\n      swap1\n      tag_19\n      jump\t// in\n    tag_18:\n      tag_20\n      jump\t// in\n    tag_17:\n      mload(0x40)\n      tag_21\n      swap2\n      swap1\n      tag_15\n      jump\t// in\n    tag_21:\n      mload(0x40)\n      dup1\n      swap2\n      sub\n      swap1\n      return\n        /* \"Mini project/Mini project.sol\":4617:7794  function withdraw(uint256 _amount) public {... */\n    tag_4:\n      callvalue\n      dup1\n      iszero\n      tag_22\n      jumpi\n      revert(0x00, 0x00)\n    tag_22:\n      pop\n      tag_23\n      0x04\n      dup1\n      calldatasize\n      sub\n      dup2\n      add\n      swap1\n      tag_24\n      swap2\n      swap1\n      tag_25\n      jump\t// in\n    tag_24:\n      tag_26\n      jump\t// in\n    tag_23:\n      stop\n        /* \"Mini project/Mini project.sol\":261:299  uint256 public minDeposit = 0.01 ether */\n    tag_5:\n      callvalue\n      dup1\n      iszero\n      tag_27\n      jumpi\n      revert(0x00, 0x00)\n    tag_27:\n      pop\n      tag_28\n      tag_29\n      jump\t// in\n    tag_28:\n      mload(0x40)\n      tag_30\n      swap2\n      swap1\n      tag_15\n      jump\t// in\n    tag_30:\n      mload(0x40)\n      dup1\n      swap2\n      sub\n      swap1\n      return\n        /* \"Mini project/Mini project.sol\":189:209  address public owner */\n    tag_6:\n      callvalue\n      dup1\n      iszero\n      tag_31\n      jumpi\n      revert(0x00, 0x00)\n    tag_31:\n      pop\n      tag_32\n      tag_33\n      jump\t// in\n    tag_32:\n      mload(0x40)\n      tag_34\n      swap2\n      swap1\n      tag_35\n      jump\t// in\n    tag_34:\n      mload(0x40)\n      dup1\n      swap2\n      sub\n      swap1\n      return\n        /* \"Mini project/Mini project.sol\":9926:10709  function getHistory() public view returns (Transaction[] memory) {... */\n    tag_7:\n      callvalue\n      dup1\n      iszero\n      tag_36\n      jumpi\n      revert(0x00, 0x00)\n    tag_36:\n      pop\n      tag_37\n      tag_38\n      jump\t// in\n    tag_37:\n      mload(0x40)\n      tag_39\n      swap2\n      swap1\n      tag_40\n      jump\t// in\n    tag_39:\n      mload(0x40)\n      dup1\n      swap2\n      sub\n      swap1\n      return\n        /* \"Mini project/Mini project.sol\":2138:4122  function deposit() public payable {... */\n    tag_8:\n      tag_41\n      tag_42\n      jump\t// in\n    tag_41:\n      stop\n        /* \"Mini project/Mini project.sol\":1106:1165  mapping(address => Transaction[]) public transactionHistory */\n    tag_9:\n      callvalue\n      dup1\n      iszero\n      tag_43\n      jumpi\n      revert(0x00, 0x00)\n    tag_43:\n      pop\n      tag_44\n      0x04\n      dup1\n      calldatasize\n      sub\n      dup2\n      add\n      swap1\n      tag_45\n      swap2\n      swap1\n      tag_46\n      jump\t// in\n    tag_45:\n      tag_47\n      jump\t// in\n    tag_44:\n      mload(0x40)\n      tag_48\n      swap4\n      swap3\n      swap2\n      swap1\n      tag_49\n      jump\t// in\n    tag_48:\n      mload(0x40)\n      dup1\n      swap2\n      sub\n      swap1\n      return\n        /* \"Mini project/Mini project.sol\":8474:9194  function getBalance() public view returns (uint256) {... */\n    tag_13:\n        /* \"Mini project/Mini project.sol\":8517:8524  uint256 */\n      0x00\n        /* \"Mini project/Mini project.sol\":8851:8859  balances */\n      0x02\n        /* \"Mini project/Mini project.sol\":8851:8871  balances[msg.sender] */\n      0x00\n        /* \"Mini project/Mini project.sol\":8860:8870  msg.sender */\n      caller\n        /* \"Mini project/Mini project.sol\":8851:8871  balances[msg.sender] */\n      0xffffffffffffffffffffffffffffffffffffffff\n      and\n      0xffffffffffffffffffffffffffffffffffffffff\n      and\n      dup2\n      mstore\n      0x20\n      add\n      swap1\n      dup2\n      mstore\n      0x20\n      add\n      0x00\n      keccak256\n      sload\n        /* \"Mini project/Mini project.sol\":8844:8871  return balances[msg.sender] */\n      swap1\n      pop\n        /* \"Mini project/Mini project.sol\":8474:9194  function getBalance() public view returns (uint256) {... */\n      swap1\n      jump\t// out\n        /* \"Mini project/Mini project.sol\":812:855  mapping(address => uint256) public balances */\n    tag_20:\n      mstore(0x20, 0x02)\n      dup1\n      0x00\n      mstore\n      keccak256(0x00, 0x40)\n      0x00\n      swap2\n      pop\n      swap1\n      pop\n      sload\n      dup2\n      jump\t// out\n        /* \"Mini project/Mini project.sol\":4617:7794  function withdraw(uint256 _amount) public {... */\n    tag_26:\n        /* \"Mini project/Mini project.sol\":4905:4912  _amount */\n      dup1\n        /* \"Mini project/Mini project.sol\":4881:4889  balances */\n      0x02\n        /* \"Mini project/Mini project.sol\":4881:4901  balances[msg.sender] */\n      0x00\n        /* \"Mini project/Mini project.sol\":4890:4900  msg.sender */\n      caller\n        /* \"Mini project/Mini project.sol\":4881:4901  balances[msg.sender] */\n      0xffffffffffffffffffffffffffffffffffffffff\n      and\n      0xffffffffffffffffffffffffffffffffffffffff\n      and\n      dup2\n      mstore\n      0x20\n      add\n      swap1\n      dup2\n      mstore\n      0x20\n      add\n      0x00\n      keccak256\n      sload\n        /* \"Mini project/Mini project.sol\":4881:4912  balances[msg.sender] >= _amount */\n      lt\n      iszero\n        /* \"Mini project/Mini project.sol\":4873:4937  require(balances[msg.sender] >= _amount, \"Insufficient balance\") */\n      tag_52\n      jumpi\n      mload(0x40)\n      0x08c379a000000000000000000000000000000000000000000000000000000000\n      dup2\n      mstore\n      0x04\n      add\n      tag_53\n      swap1\n      tag_54\n      jump\t// in\n    tag_53:\n      mload(0x40)\n      dup1\n      swap2\n      sub\n      swap1\n      revert\n    tag_52:\n        /* \"Mini project/Mini project.sol\":5412:5419  _amount */\n      dup1\n        /* \"Mini project/Mini project.sol\":5388:5396  balances */\n      0x02\n        /* \"Mini project/Mini project.sol\":5388:5408  balances[msg.sender] */\n      0x00\n        /* \"Mini project/Mini project.sol\":5397:5407  msg.sender */\n      caller\n        /* \"Mini project/Mini project.sol\":5388:5408  balances[msg.sender] */\n      0xffffffffffffffffffffffffffffffffffffffff\n      and\n      0xffffffffffffffffffffffffffffffffffffffff\n      and\n      dup2\n      mstore\n      0x20\n      add\n      swap1\n      dup2\n      mstore\n      0x20\n      add\n      0x00\n      keccak256\n      0x00\n        /* \"Mini project/Mini project.sol\":5388:5419  balances[msg.sender] -= _amount */\n      dup3\n      dup3\n      sload\n      tag_55\n      swap2\n      swap1\n      tag_56\n      jump\t// in\n    tag_55:\n      swap3\n      pop\n      pop\n      dup2\n      swap1\n      sstore\n      pop\n        /* \"Mini project/Mini project.sol\":5665:5675  msg.sender */\n      caller\n        /* \"Mini project/Mini project.sol\":5657:5685  payable(msg.sender).transfer */\n      0xffffffffffffffffffffffffffffffffffffffff\n      and\n        /* \"Mini project/Mini project.sol\":5657:5694  payable(msg.sender).transfer(_amount) */\n      0x08fc\n        /* \"Mini project/Mini project.sol\":5686:5693  _amount */\n      dup3\n        /* \"Mini project/Mini project.sol\":5657:5694  payable(msg.sender).transfer(_amount) */\n      swap1\n      dup2\n      iszero\n      mul\n      swap1\n      mload(0x40)\n      0x00\n      mload(0x40)\n      dup1\n      dup4\n      sub\n      dup2\n      dup6\n      dup9\n      dup9\n      call\n      swap4\n      pop\n      pop\n      pop\n      pop\n      iszero\n      dup1\n      iszero\n      tag_58\n      jumpi\n      returndatacopy(0x00, 0x00, returndatasize)\n      revert(0x00, returndatasize)\n    tag_58:\n      pop\n        /* \"Mini project/Mini project.sol\":5941:5959  transactionHistory */\n      0x03\n        /* \"Mini project/Mini project.sol\":5941:5971  transactionHistory[msg.sender] */\n      0x00\n        /* \"Mini project/Mini project.sol\":5960:5970  msg.sender */\n      caller\n        /* \"Mini project/Mini project.sol\":5941:5971  transactionHistory[msg.sender] */\n      0xffffffffffffffffffffffffffffffffffffffff\n      and\n      0xffffffffffffffffffffffffffffffffffffffff\n      and\n      dup2\n      mstore\n      0x20\n      add\n      swap1\n      dup2\n      mstore\n      0x20\n      add\n      0x00\n      keccak256\n        /* \"Mini project/Mini project.sol\":5977:7151  Transaction({... */\n      mload(0x40)\n      dup1\n      0x60\n      add\n      0x40\n      mstore\n      dup1\n      mload(0x40)\n      dup1\n      0x40\n      add\n      0x40\n      mstore\n      dup1\n      0x0a\n      dup2\n      mstore\n      0x20\n      add\n      0x5769746864726177616c00000000000000000000000000000000000000000000\n      dup2\n      mstore\n      pop\n      dup2\n      mstore\n      0x20\n      add\n        /* \"Mini project/Mini project.sol\":6545:6552  _amount */\n      dup4\n        /* \"Mini project/Mini project.sol\":5977:7151  Transaction({... */\n      dup2\n      mstore\n      0x20\n      add\n        /* \"Mini project/Mini project.sol\":6845:6860  block.timestamp */\n      timestamp\n        /* \"Mini project/Mini project.sol\":5977:7151  Transaction({... */\n      dup2\n      mstore\n      pop\n        /* \"Mini project/Mini project.sol\":5941:7152  transactionHistory[msg.sender].push(Transaction({... */\n      swap1\n      dup1\n      0x01\n      dup2\n      sload\n      add\n      dup1\n      dup3\n      sstore\n      dup1\n      swap2\n      pop\n      pop\n      0x01\n      swap1\n      sub\n      swap1\n      0x00\n      mstore\n      keccak256(0x00, 0x20)\n      swap1\n      0x03\n      mul\n      add\n      0x00\n      swap1\n      swap2\n      swap1\n      swap2\n      swap1\n      swap2\n      pop\n      0x00\n      dup3\n      add\n      mload\n      dup2\n      0x00\n      add\n      swap1\n      dup2\n      tag_60\n      swap2\n      swap1\n      tag_61\n      jump\t// in\n    tag_60:\n      pop\n      0x20\n      dup3\n      add\n      mload\n      dup2\n      0x01\n      add\n      sstore\n      0x40\n      dup3\n      add\n      mload\n      dup2\n      0x02\n      add\n      sstore\n      pop\n      pop\n        /* \"Mini project/Mini project.sol\":7471:7481  msg.sender */\n      caller\n        /* \"Mini project/Mini project.sol\":7456:7491  WithdrawalMade(msg.sender, _amount) */\n      0xffffffffffffffffffffffffffffffffffffffff\n      and\n      0xbc158bb64f05d6383aea69bbb0b20c1bbf4b7a18f63359c5649b7c39e29d3884\n        /* \"Mini project/Mini project.sol\":7483:7490  _amount */\n      dup3\n        /* \"Mini project/Mini project.sol\":7456:7491  WithdrawalMade(msg.sender, _amount) */\n      mload(0x40)\n      tag_62\n      swap2\n      swap1\n      tag_15\n      jump\t// in\n    tag_62:\n      mload(0x40)\n      dup1\n      swap2\n      sub\n      swap1\n      log2\n        /* \"Mini project/Mini project.sol\":4617:7794  function withdraw(uint256 _amount) public {... */\n      pop\n      jump\t// out\n        /* \"Mini project/Mini project.sol\":261:299  uint256 public minDeposit = 0.01 ether */\n    tag_29:\n      sload(0x01)\n      dup2\n      jump\t// out\n        /* \"Mini project/Mini project.sol\":189:209  address public owner */\n    tag_33:\n      0x00\n      0x00\n      swap1\n      sload\n      swap1\n      0x0100\n      exp\n      swap1\n      div\n      0xffffffffffffffffffffffffffffffffffffffff\n      and\n      dup2\n      jump\t// out\n        /* \"Mini project/Mini project.sol\":9926:10709  function getHistory() public view returns (Transaction[] memory) {... */\n    tag_38:\n        /* \"Mini project/Mini project.sol\":9969:9989  Transaction[] memory */\n      0x60\n        /* \"Mini project/Mini project.sol\":10336:10354  transactionHistory */\n      0x03\n        /* \"Mini project/Mini project.sol\":10336:10366  transactionHistory[msg.sender] */\n      0x00\n        /* \"Mini project/Mini project.sol\":10355:10365  msg.sender */\n      caller\n        /* \"Mini project/Mini project.sol\":10336:10366  transactionHistory[msg.sender] */\n      0xffffffffffffffffffffffffffffffffffffffff\n      and\n      0xffffffffffffffffffffffffffffffffffffffff\n      and\n      dup2\n      mstore\n      0x20\n      add\n      swap1\n      dup2\n      mstore\n      0x20\n      add\n      0x00\n      keccak256\n        /* \"Mini project/Mini project.sol\":10329:10366  return transactionHistory[msg.sender] */\n      dup1\n      sload\n      dup1\n      0x20\n      mul\n      0x20\n      add\n      mload(0x40)\n      swap1\n      dup2\n      add\n      0x40\n      mstore\n      dup1\n      swap3\n      swap2\n      swap1\n      dup2\n      dup2\n      mstore\n      0x20\n      add\n      0x00\n      swap1\n    tag_64:\n      dup3\n      dup3\n      lt\n      iszero\n      tag_65\n      jumpi\n      dup4\n      dup3\n      swap1\n      0x00\n      mstore\n      keccak256(0x00, 0x20)\n      swap1\n      0x03\n      mul\n      add\n      mload(0x40)\n      dup1\n      0x60\n      add\n      0x40\n      mstore\n      swap1\n      dup2\n      0x00\n      dup3\n      add\n      dup1\n      sload\n      tag_67\n      swap1\n      tag_68\n      jump\t// in\n    tag_67:\n      dup1\n      0x1f\n      add\n      0x20\n      dup1\n      swap2\n      div\n      mul\n      0x20\n      add\n      mload(0x40)\n      swap1\n      dup2\n      add\n      0x40\n      mstore\n      dup1\n      swap3\n      swap2\n      swap1\n      dup2\n      dup2\n      mstore\n      0x20\n      add\n      dup3\n      dup1\n      sload\n      tag_69\n      swap1\n      tag_68\n      jump\t// in\n    tag_69:\n      dup1\n      iszero\n      tag_70\n      jumpi\n      dup1\n      0x1f\n      lt\n      tag_71\n      jumpi\n      0x0100\n      dup1\n      dup4\n      sload\n      div\n      mul\n      dup4\n      mstore\n      swap2\n      0x20\n      add\n      swap2\n      jump(tag_70)\n    tag_71:\n      dup3\n      add\n      swap2\n      swap1\n      0x00\n      mstore\n      keccak256(0x00, 0x20)\n      swap1\n    tag_72:\n      dup2\n      sload\n      dup2\n      mstore\n      swap1\n      0x01\n      add\n      swap1\n      0x20\n      add\n      dup1\n      dup4\n      gt\n      tag_72\n      jumpi\n      dup3\n      swap1\n      sub\n      0x1f\n      and\n      dup3\n      add\n      swap2\n    tag_70:\n      pop\n      pop\n      pop\n      pop\n      pop\n      dup2\n      mstore\n      0x20\n      add\n      0x01\n      dup3\n      add\n      sload\n      dup2\n      mstore\n      0x20\n      add\n      0x02\n      dup3\n      add\n      sload\n      dup2\n      mstore\n      pop\n      pop\n      dup2\n      mstore\n      0x20\n      add\n      swap1\n      0x01\n      add\n      swap1\n      jump(tag_64)\n    tag_65:\n      pop\n      pop\n      pop\n      pop\n      swap1\n      pop\n        /* \"Mini project/Mini project.sol\":9926:10709  function getHistory() public view returns (Transaction[] memory) {... */\n      swap1\n      jump\t// out\n        /* \"Mini project/Mini project.sol\":2138:4122  function deposit() public payable {... */\n    tag_42:\n        /* \"Mini project/Mini project.sol\":2303:2313  minDeposit */\n      sload(0x01)\n        /* \"Mini project/Mini project.sol\":2290:2299  msg.value */\n      callvalue\n        /* \"Mini project/Mini project.sol\":2290:2313  msg.value >= minDeposit */\n      lt\n      iszero\n        /* \"Mini project/Mini project.sol\":2282:2343  require(msg.value >= minDeposit, \"Deposit amount is too low\") */\n      tag_74\n      jumpi\n      mload(0x40)\n      0x08c379a000000000000000000000000000000000000000000000000000000000\n      dup2\n      mstore\n      0x04\n      add\n      tag_75\n      swap1\n      tag_76\n      jump\t// in\n    tag_75:\n      mload(0x40)\n      dup1\n      swap2\n      sub\n      swap1\n      revert\n    tag_74:\n        /* \"Mini project/Mini project.sol\":2611:2620  msg.value */\n      callvalue\n        /* \"Mini project/Mini project.sol\":2587:2595  balances */\n      0x02\n        /* \"Mini project/Mini project.sol\":2587:2607  balances[msg.sender] */\n      0x00\n        /* \"Mini project/Mini project.sol\":2596:2606  msg.sender */\n      caller\n        /* \"Mini project/Mini project.sol\":2587:2607  balances[msg.sender] */\n      0xffffffffffffffffffffffffffffffffffffffff\n      and\n      0xffffffffffffffffffffffffffffffffffffffff\n      and\n      dup2\n      mstore\n      0x20\n      add\n      swap1\n      dup2\n      mstore\n      0x20\n      add\n      0x00\n      keccak256\n      0x00\n        /* \"Mini project/Mini project.sol\":2587:2620  balances[msg.sender] += msg.value */\n      dup3\n      dup3\n      sload\n      tag_77\n      swap2\n      swap1\n      tag_78\n      jump\t// in\n    tag_77:\n      swap3\n      pop\n      pop\n      dup2\n      swap1\n      sstore\n      pop\n        /* \"Mini project/Mini project.sol\":2895:2913  transactionHistory */\n      0x03\n        /* \"Mini project/Mini project.sol\":2895:2925  transactionHistory[msg.sender] */\n      0x00\n        /* \"Mini project/Mini project.sol\":2914:2924  msg.sender */\n      caller\n        /* \"Mini project/Mini project.sol\":2895:2925  transactionHistory[msg.sender] */\n      0xffffffffffffffffffffffffffffffffffffffff\n      and\n      0xffffffffffffffffffffffffffffffffffffffff\n      and\n      dup2\n      mstore\n      0x20\n      add\n      swap1\n      dup2\n      mstore\n      0x20\n      add\n      0x00\n      keccak256\n        /* \"Mini project/Mini project.sol\":2931:3688  Transaction({... */\n      mload(0x40)\n      dup1\n      0x60\n      add\n      0x40\n      mstore\n      dup1\n      mload(0x40)\n      dup1\n      0x40\n      add\n      0x40\n      mstore\n      dup1\n      0x07\n      dup2\n      mstore\n      0x20\n      add\n      0x4465706f73697400000000000000000000000000000000000000000000000000\n      dup2\n      mstore\n      pop\n      dup2\n      mstore\n      0x20\n      add\n        /* \"Mini project/Mini project.sol\":3288:3297  msg.value */\n      callvalue\n        /* \"Mini project/Mini project.sol\":2931:3688  Transaction({... */\n      dup2\n      mstore\n      0x20\n      add\n        /* \"Mini project/Mini project.sol\":3486:3501  block.timestamp */\n      timestamp\n        /* \"Mini project/Mini project.sol\":2931:3688  Transaction({... */\n      dup2\n      mstore\n      pop\n        /* \"Mini project/Mini project.sol\":2895:3689  transactionHistory[msg.sender].push(Transaction({... */\n      swap1\n      dup1\n      0x01\n      dup2\n      sload\n      add\n      dup1\n      dup3\n      sstore\n      dup1\n      swap2\n      pop\n      pop\n      0x01\n      swap1\n      sub\n      swap1\n      0x00\n      mstore\n      keccak256(0x00, 0x20)\n      swap1\n      0x03\n      mul\n      add\n      0x00\n      swap1\n      swap2\n      swap1\n      swap2\n      swap1\n      swap2\n      pop\n      0x00\n      dup3\n      add\n      mload\n      dup2\n      0x00\n      add\n      swap1\n      dup2\n      tag_80\n      swap2\n      swap1\n      tag_61\n      jump\t// in\n    tag_80:\n      pop\n      0x20\n      dup3\n      add\n      mload\n      dup2\n      0x01\n      add\n      sstore\n      0x40\n      dup3\n      add\n      mload\n      dup2\n      0x02\n      add\n      sstore\n      pop\n      pop\n        /* \"Mini project/Mini project.sol\":3901:3911  msg.sender */\n      caller\n        /* \"Mini project/Mini project.sol\":3889:3923  DepositMade(msg.sender, msg.value) */\n      0xffffffffffffffffffffffffffffffffffffffff\n      and\n      0xd15c9547ea5c06670c0010ce19bc32d54682a4b3801ece7f3ab0c3f17106b4bb\n        /* \"Mini project/Mini project.sol\":3913:3922  msg.value */\n      callvalue\n        /* \"Mini project/Mini project.sol\":3889:3923  DepositMade(msg.sender, msg.value) */\n      mload(0x40)\n      tag_81\n      swap2\n      swap1\n      tag_15\n      jump\t// in\n    tag_81:\n      mload(0x40)\n      dup1\n      swap2\n      sub\n      swap1\n      log2\n        /* \"Mini project/Mini project.sol\":2138:4122  function deposit() public payable {... */\n      jump\t// out\n        /* \"Mini project/Mini project.sol\":1106:1165  mapping(address => Transaction[]) public transactionHistory */\n    tag_47:\n      mstore(0x20, 0x03)\n      dup2\n      0x00\n      mstore\n      keccak256(0x00, 0x40)\n      dup2\n      dup2\n      sload\n      dup2\n      lt\n      tag_82\n      jumpi\n      0x00\n      dup1\n      revert\n    tag_82:\n      swap1\n      0x00\n      mstore\n      keccak256(0x00, 0x20)\n      swap1\n      0x03\n      mul\n      add\n      0x00\n      swap2\n      pop\n      swap2\n      pop\n      pop\n      dup1\n      0x00\n      add\n      dup1\n      sload\n      tag_84\n      swap1\n      tag_68\n      jump\t// in\n    tag_84:\n      dup1\n      0x1f\n      add\n      0x20\n      dup1\n      swap2\n      div\n      mul\n      0x20\n      add\n      mload(0x40)\n      swap1\n      dup2\n      add\n      0x40\n      mstore\n      dup1\n      swap3\n      swap2\n      swap1\n      dup2\n      dup2\n      mstore\n      0x20\n      add\n      dup3\n      dup1\n      sload\n      tag_85\n      swap1\n      tag_68\n      jump\t// in\n    tag_85:\n      dup1\n      iszero\n      tag_86\n      jumpi\n      dup1\n      0x1f\n      lt\n      tag_87\n      jumpi\n      0x0100\n      dup1\n      dup4\n      sload\n      div\n      mul\n      dup4\n      mstore\n      swap2\n      0x20\n      add\n      swap2\n      jump(tag_86)\n    tag_87:\n      dup3\n      add\n      swap2\n      swap1\n      0x00\n      mstore\n      keccak256(0x00, 0x20)\n      swap1\n    tag_88:\n      dup2\n      sload\n      dup2\n      mstore\n      swap1\n      0x01\n      add\n      swap1\n      0x20\n      add\n      dup1\n      dup4\n      gt\n      tag_88\n      jumpi\n      dup3\n      swap1\n      sub\n      0x1f\n      and\n      dup3\n      add\n      swap2\n    tag_86:\n      pop\n      pop\n      pop\n      pop\n      pop\n      swap1\n      dup1\n      0x01\n      add\n      sload\n      swap1\n      dup1\n      0x02\n      add\n      sload\n      swap1\n      pop\n      dup4\n      jump\t// out\n        /* \"#utility.yul\":7:84   */\n    tag_89:\n        /* \"#utility.yul\":44:51   */\n      0x00\n        /* \"#utility.yul\":73:78   */\n      dup2\n        /* \"#utility.yul\":62:78   */\n      swap1\n      pop\n        /* \"#utility.yul\":7:84   */\n      swap2\n      swap1\n      pop\n      jump\t// out\n        /* \"#utility.yul\":90:208   */\n    tag_90:\n        /* \"#utility.yul\":177:201   */\n      tag_141\n        /* \"#utility.yul\":195:200   */\n      dup2\n        /* \"#utility.yul\":177:201   */\n      tag_89\n      jump\t// in\n    tag_141:\n        /* \"#utility.yul\":172:175   */\n      dup3\n        /* \"#utility.yul\":165:202   */\n      mstore\n        /* \"#utility.yul\":90:208   */\n      pop\n      pop\n      jump\t// out\n        /* \"#utility.yul\":214:436   */\n    tag_15:\n        /* \"#utility.yul\":307:311   */\n      0x00\n        /* \"#utility.yul\":345:347   */\n      0x20\n        /* \"#utility.yul\":334:343   */\n      dup3\n        /* \"#utility.yul\":330:348   */\n      add\n        /* \"#utility.yul\":322:348   */\n      swap1\n      pop\n        /* \"#utility.yul\":358:429   */\n      tag_143\n        /* \"#utility.yul\":426:427   */\n      0x00\n        /* \"#utility.yul\":415:424   */\n      dup4\n        /* \"#utility.yul\":411:428   */\n      add\n        /* \"#utility.yul\":402:408   */\n      dup5\n        /* \"#utility.yul\":358:429   */\n      tag_90\n      jump\t// in\n    tag_143:\n        /* \"#utility.yul\":214:436   */\n      swap3\n      swap2\n      pop\n      pop\n      jump\t// out\n        /* \"#utility.yul\":523:640   */\n    tag_92:\n        /* \"#utility.yul\":632:633   */\n      0x00\n        /* \"#utility.yul\":629:630   */\n      0x00\n        /* \"#utility.yul\":622:634   */\n      revert\n        /* \"#utility.yul\":769:895   */\n    tag_94:\n        /* \"#utility.yul\":806:813   */\n      0x00\n        /* \"#utility.yul\":846:888   */\n      0xffffffffffffffffffffffffffffffffffffffff\n        /* \"#utility.yul\":839:844   */\n      dup3\n        /* \"#utility.yul\":835:889   */\n      and\n        /* \"#utility.yul\":824:889   */\n      swap1\n      pop\n        /* \"#utility.yul\":769:895   */\n      swap2\n      swap1\n      pop\n      jump\t// out\n        /* \"#utility.yul\":901:997   */\n    tag_95:\n        /* \"#utility.yul\":938:945   */\n      0x00\n        /* \"#utility.yul\":967:991   */\n      tag_149\n        /* \"#utility.yul\":985:990   */\n      dup3\n        /* \"#utility.yul\":967:991   */\n      tag_94\n      jump\t// in\n    tag_149:\n        /* \"#utility.yul\":956:991   */\n      swap1\n      pop\n        /* \"#utility.yul\":901:997   */\n      swap2\n      swap1\n      pop\n      jump\t// out\n        /* \"#utility.yul\":1003:1125   */\n    tag_96:\n        /* \"#utility.yul\":1076:1100   */\n      tag_151\n        /* \"#utility.yul\":1094:1099   */\n      dup2\n        /* \"#utility.yul\":1076:1100   */\n      tag_95\n      jump\t// in\n    tag_151:\n        /* \"#utility.yul\":1069:1074   */\n      dup2\n        /* \"#utility.yul\":1066:1101   */\n      eq\n        /* \"#utility.yul\":1056:1119   */\n      tag_152\n      jumpi\n        /* \"#utility.yul\":1115:1116   */\n      0x00\n        /* \"#utility.yul\":1112:1113   */\n      0x00\n        /* \"#utility.yul\":1105:1117   */\n      revert\n        /* \"#utility.yul\":1056:1119   */\n    tag_152:\n        /* \"#utility.yul\":1003:1125   */\n      pop\n      jump\t// out\n        /* \"#utility.yul\":1131:1270   */\n    tag_97:\n        /* \"#utility.yul\":1177:1182   */\n      0x00\n        /* \"#utility.yul\":1215:1221   */\n      dup2\n        /* \"#utility.yul\":1202:1222   */\n      calldataload\n        /* \"#utility.yul\":1193:1222   */\n      swap1\n      pop\n        /* \"#utility.yul\":1231:1264   */\n      tag_154\n        /* \"#utility.yul\":1258:1263   */\n      dup2\n        /* \"#utility.yul\":1231:1264   */\n      tag_96\n      jump\t// in\n    tag_154:\n        /* \"#utility.yul\":1131:1270   */\n      swap3\n      swap2\n      pop\n      pop\n      jump\t// out\n        /* \"#utility.yul\":1276:1605   */\n    tag_19:\n        /* \"#utility.yul\":1335:1341   */\n      0x00\n        /* \"#utility.yul\":1384:1386   */\n      0x20\n        /* \"#utility.yul\":1372:1381   */\n      dup3\n        /* \"#utility.yul\":1363:1370   */\n      dup5\n        /* \"#utility.yul\":1359:1382   */\n      sub\n        /* \"#utility.yul\":1355:1387   */\n      slt\n        /* \"#utility.yul\":1352:1471   */\n      iszero\n      tag_156\n      jumpi\n        /* \"#utility.yul\":1390:1469   */\n      tag_157\n      tag_92\n      jump\t// in\n    tag_157:\n        /* \"#utility.yul\":1352:1471   */\n    tag_156:\n        /* \"#utility.yul\":1510:1511   */\n      0x00\n        /* \"#utility.yul\":1535:1588   */\n      tag_158\n        /* \"#utility.yul\":1580:1587   */\n      dup5\n        /* \"#utility.yul\":1571:1577   */\n      dup3\n        /* \"#utility.yul\":1560:1569   */\n      dup6\n        /* \"#utility.yul\":1556:1578   */\n      add\n        /* \"#utility.yul\":1535:1588   */\n      tag_97\n      jump\t// in\n    tag_158:\n        /* \"#utility.yul\":1525:1588   */\n      swap2\n      pop\n        /* \"#utility.yul\":1481:1598   */\n      pop\n        /* \"#utility.yul\":1276:1605   */\n      swap3\n      swap2\n      pop\n      pop\n      jump\t// out\n        /* \"#utility.yul\":1611:1733   */\n    tag_98:\n        /* \"#utility.yul\":1684:1708   */\n      tag_160\n        /* \"#utility.yul\":1702:1707   */\n      dup2\n        /* \"#utility.yul\":1684:1708   */\n      tag_89\n      jump\t// in\n    tag_160:\n        /* \"#utility.yul\":1677:1682   */\n      dup2\n        /* \"#utility.yul\":1674:1709   */\n      eq\n        /* \"#utility.yul\":1664:1727   */\n      tag_161\n      jumpi\n        /* \"#utility.yul\":1723:1724   */\n      0x00\n        /* \"#utility.yul\":1720:1721   */\n      0x00\n        /* \"#utility.yul\":1713:1725   */\n      revert\n        /* \"#utility.yul\":1664:1727   */\n    tag_161:\n        /* \"#utility.yul\":1611:1733   */\n      pop\n      jump\t// out\n        /* \"#utility.yul\":1739:1878   */\n    tag_99:\n        /* \"#utility.yul\":1785:1790   */\n      0x00\n        /* \"#utility.yul\":1823:1829   */\n      dup2\n        /* \"#utility.yul\":1810:1830   */\n      calldataload\n        /* \"#utility.yul\":1801:1830   */\n      swap1\n      pop\n        /* \"#utility.yul\":1839:1872   */\n      tag_163\n        /* \"#utility.yul\":1866:1871   */\n      dup2\n        /* \"#utility.yul\":1839:1872   */\n      tag_98\n      jump\t// in\n    tag_163:\n        /* \"#utility.yul\":1739:1878   */\n      swap3\n      swap2\n      pop\n      pop\n      jump\t// out\n        /* \"#utility.yul\":1884:2213   */\n    tag_25:\n        /* \"#utility.yul\":1943:1949   */\n      0x00\n        /* \"#utility.yul\":1992:1994   */\n      0x20\n        /* \"#utility.yul\":1980:1989   */\n      dup3\n        /* \"#utility.yul\":1971:1978   */\n      dup5\n        /* \"#utility.yul\":1967:1990   */\n      sub\n        /* \"#utility.yul\":1963:1995   */\n      slt\n        /* \"#utility.yul\":1960:2079   */\n      iszero\n      tag_165\n      jumpi\n        /* \"#utility.yul\":1998:2077   */\n      tag_166\n      tag_92\n      jump\t// in\n    tag_166:\n        /* \"#utility.yul\":1960:2079   */\n    tag_165:\n        /* \"#utility.yul\":2118:2119   */\n      0x00\n        /* \"#utility.yul\":2143:2196   */\n      tag_167\n        /* \"#utility.yul\":2188:2195   */\n      dup5\n        /* \"#utility.yul\":2179:2185   */\n      dup3\n        /* \"#utility.yul\":2168:2177   */\n      dup6\n        /* \"#utility.yul\":2164:2186   */\n      add\n        /* \"#utility.yul\":2143:2196   */\n      tag_99\n      jump\t// in\n    tag_167:\n        /* \"#utility.yul\":2133:2196   */\n      swap2\n      pop\n        /* \"#utility.yul\":2089:2206   */\n      pop\n        /* \"#utility.yul\":1884:2213   */\n      swap3\n      swap2\n      pop\n      pop\n      jump\t// out\n        /* \"#utility.yul\":2219:2337   */\n    tag_100:\n        /* \"#utility.yul\":2306:2330   */\n      tag_169\n        /* \"#utility.yul\":2324:2329   */\n      dup2\n        /* \"#utility.yul\":2306:2330   */\n      tag_95\n      jump\t// in\n    tag_169:\n        /* \"#utility.yul\":2301:2304   */\n      dup3\n        /* \"#utility.yul\":2294:2331   */\n      mstore\n        /* \"#utility.yul\":2219:2337   */\n      pop\n      pop\n      jump\t// out\n        /* \"#utility.yul\":2343:2565   */\n    tag_35:\n        /* \"#utility.yul\":2436:2440   */\n      0x00\n        /* \"#utility.yul\":2474:2476   */\n      0x20\n        /* \"#utility.yul\":2463:2472   */\n      dup3\n        /* \"#utility.yul\":2459:2477   */\n      add\n        /* \"#utility.yul\":2451:2477   */\n      swap1\n      pop\n        /* \"#utility.yul\":2487:2558   */\n      tag_171\n        /* \"#utility.yul\":2555:2556   */\n      0x00\n        /* \"#utility.yul\":2544:2553   */\n      dup4\n        /* \"#utility.yul\":2540:2557   */\n      add\n        /* \"#utility.yul\":2531:2537   */\n      dup5\n        /* \"#utility.yul\":2487:2558   */\n      tag_100\n      jump\t// in\n    tag_171:\n        /* \"#utility.yul\":2343:2565   */\n      swap3\n      swap2\n      pop\n      pop\n      jump\t// out\n        /* \"#utility.yul\":2571:2712   */\n    tag_101:\n        /* \"#utility.yul\":2665:2671   */\n      0x00\n        /* \"#utility.yul\":2699:2704   */\n      dup2\n        /* \"#utility.yul\":2693:2705   */\n      mload\n        /* \"#utility.yul\":2683:2705   */\n      swap1\n      pop\n        /* \"#utility.yul\":2571:2712   */\n      swap2\n      swap1\n      pop\n      jump\t// out\n        /* \"#utility.yul\":2718:2929   */\n    tag_102:\n        /* \"#utility.yul\":2844:2855   */\n      0x00\n        /* \"#utility.yul\":2878:2884   */\n      dup3\n        /* \"#utility.yul\":2873:2876   */\n      dup3\n        /* \"#utility.yul\":2866:2885   */\n      mstore\n        /* \"#utility.yul\":2918:2922   */\n      0x20\n        /* \"#utility.yul\":2913:2916   */\n      dup3\n        /* \"#utility.yul\":2909:2923   */\n      add\n        /* \"#utility.yul\":2894:2923   */\n      swap1\n      pop\n        /* \"#utility.yul\":2718:2929   */\n      swap3\n      swap2\n      pop\n      pop\n      jump\t// out\n        /* \"#utility.yul\":2935:3094   */\n    tag_103:\n        /* \"#utility.yul\":3029:3033   */\n      0x00\n        /* \"#utility.yul\":3052:3055   */\n      dup2\n        /* \"#utility.yul\":3044:3055   */\n      swap1\n      pop\n        /* \"#utility.yul\":3082:3086   */\n      0x20\n        /* \"#utility.yul\":3077:3080   */\n      dup3\n        /* \"#utility.yul\":3073:3087   */\n      add\n        /* \"#utility.yul\":3065:3087   */\n      swap1\n      pop\n        /* \"#utility.yul\":2935:3094   */\n      swap2\n      swap1\n      pop\n      jump\t// out\n        /* \"#utility.yul\":3100:3199   */\n    tag_104:\n        /* \"#utility.yul\":3152:3158   */\n      0x00\n        /* \"#utility.yul\":3186:3191   */\n      dup2\n        /* \"#utility.yul\":3180:3192   */\n      mload\n        /* \"#utility.yul\":3170:3192   */\n      swap1\n      pop\n        /* \"#utility.yul\":3100:3199   */\n      swap2\n      swap1\n      pop\n      jump\t// out\n        /* \"#utility.yul\":3205:3364   */\n    tag_105:\n        /* \"#utility.yul\":3279:3290   */\n      0x00\n        /* \"#utility.yul\":3313:3319   */\n      dup3\n        /* \"#utility.yul\":3308:3311   */\n      dup3\n        /* \"#utility.yul\":3301:3320   */\n      mstore\n        /* \"#utility.yul\":3353:3357   */\n      0x20\n        /* \"#utility.yul\":3348:3351   */\n      dup3\n        /* \"#utility.yul\":3344:3358   */\n      add\n        /* \"#utility.yul\":3329:3358   */\n      swap1\n      pop\n        /* \"#utility.yul\":3205:3364   */\n      swap3\n      swap2\n      pop\n      pop\n      jump\t// out\n        /* \"#utility.yul\":3370:3509   */\n    tag_106:\n        /* \"#utility.yul\":3459:3465   */\n      dup3\n        /* \"#utility.yul\":3454:3457   */\n      dup2\n        /* \"#utility.yul\":3449:3452   */\n      dup4\n        /* \"#utility.yul\":3443:3466   */\n      mcopy\n        /* \"#utility.yul\":3500:3501   */\n      0x00\n        /* \"#utility.yul\":3491:3497   */\n      dup4\n        /* \"#utility.yul\":3486:3489   */\n      dup4\n        /* \"#utility.yul\":3482:3498   */\n      add\n        /* \"#utility.yul\":3475:3502   */\n      mstore\n        /* \"#utility.yul\":3370:3509   */\n      pop\n      pop\n      pop\n      jump\t// out\n        /* \"#utility.yul\":3515:3617   */\n    tag_107:\n        /* \"#utility.yul\":3556:3562   */\n      0x00\n        /* \"#utility.yul\":3607:3609   */\n      0x1f\n        /* \"#utility.yul\":3603:3610   */\n      not\n        /* \"#utility.yul\":3598:3600   */\n      0x1f\n        /* \"#utility.yul\":3591:3596   */\n      dup4\n        /* \"#utility.yul\":3587:3601   */\n      add\n        /* \"#utility.yul\":3583:3611   */\n      and\n        /* \"#utility.yul\":3573:3611   */\n      swap1\n      pop\n        /* \"#utility.yul\":3515:3617   */\n      swap2\n      swap1\n      pop\n      jump\t// out\n        /* \"#utility.yul\":3623:3980   */\n    tag_108:\n        /* \"#utility.yul\":3701:3704   */\n      0x00\n        /* \"#utility.yul\":3729:3768   */\n      tag_180\n        /* \"#utility.yul\":3762:3767   */\n      dup3\n        /* \"#utility.yul\":3729:3768   */\n      tag_104\n      jump\t// in\n    tag_180:\n        /* \"#utility.yul\":3784:3845   */\n      tag_181\n        /* \"#utility.yul\":3838:3844   */\n      dup2\n        /* \"#utility.yul\":3833:3836   */\n      dup6\n        /* \"#utility.yul\":3784:3845   */\n      tag_105\n      jump\t// in\n    tag_181:\n        /* \"#utility.yul\":3777:3845   */\n      swap4\n      pop\n        /* \"#utility.yul\":3854:3919   */\n      tag_182\n        /* \"#utility.yul\":3912:3918   */\n      dup2\n        /* \"#utility.yul\":3907:3910   */\n      dup6\n        /* \"#utility.yul\":3900:3904   */\n      0x20\n        /* \"#utility.yul\":3893:3898   */\n      dup7\n        /* \"#utility.yul\":3889:3905   */\n      add\n        /* \"#utility.yul\":3854:3919   */\n      tag_106\n      jump\t// in\n    tag_182:\n        /* \"#utility.yul\":3944:3973   */\n      tag_183\n        /* \"#utility.yul\":3966:3972   */\n      dup2\n        /* \"#utility.yul\":3944:3973   */\n      tag_107\n      jump\t// in\n    tag_183:\n        /* \"#utility.yul\":3939:3942   */\n      dup5\n        /* \"#utility.yul\":3935:3974   */\n      add\n        /* \"#utility.yul\":3928:3974   */\n      swap2\n      pop\n        /* \"#utility.yul\":3705:3980   */\n      pop\n        /* \"#utility.yul\":3623:3980   */\n      swap3\n      swap2\n      pop\n      pop\n      jump\t// out\n        /* \"#utility.yul\":3986:4094   */\n    tag_109:\n        /* \"#utility.yul\":4063:4087   */\n      tag_185\n        /* \"#utility.yul\":4081:4086   */\n      dup2\n        /* \"#utility.yul\":4063:4087   */\n      tag_89\n      jump\t// in\n    tag_185:\n        /* \"#utility.yul\":4058:4061   */\n      dup3\n        /* \"#utility.yul\":4051:4088   */\n      mstore\n        /* \"#utility.yul\":3986:4094   */\n      pop\n      pop\n      jump\t// out\n        /* \"#utility.yul\":4190:4973   */\n    tag_110:\n        /* \"#utility.yul\":4303:4306   */\n      0x00\n        /* \"#utility.yul\":4339:4343   */\n      0x60\n        /* \"#utility.yul\":4334:4337   */\n      dup4\n        /* \"#utility.yul\":4330:4344   */\n      add\n        /* \"#utility.yul\":4428:4432   */\n      0x00\n        /* \"#utility.yul\":4421:4426   */\n      dup4\n        /* \"#utility.yul\":4417:4433   */\n      add\n        /* \"#utility.yul\":4411:4434   */\n      mload\n        /* \"#utility.yul\":4481:4484   */\n      dup5\n        /* \"#utility.yul\":4475:4479   */\n      dup3\n        /* \"#utility.yul\":4471:4485   */\n      sub\n        /* \"#utility.yul\":4464:4468   */\n      0x00\n        /* \"#utility.yul\":4459:4462   */\n      dup7\n        /* \"#utility.yul\":4455:4469   */\n      add\n        /* \"#utility.yul\":4448:4486   */\n      mstore\n        /* \"#utility.yul\":4507:4580   */\n      tag_187\n        /* \"#utility.yul\":4575:4579   */\n      dup3\n        /* \"#utility.yul\":4561:4573   */\n      dup3\n        /* \"#utility.yul\":4507:4580   */\n      tag_108\n      jump\t// in\n    tag_187:\n        /* \"#utility.yul\":4499:4580   */\n      swap2\n      pop\n        /* \"#utility.yul\":4354:4591   */\n      pop\n        /* \"#utility.yul\":4675:4679   */\n      0x20\n        /* \"#utility.yul\":4668:4673   */\n      dup4\n        /* \"#utility.yul\":4664:4680   */\n      add\n        /* \"#utility.yul\":4658:4681   */\n      mload\n        /* \"#utility.yul\":4694:4757   */\n      tag_188\n        /* \"#utility.yul\":4751:4755   */\n      0x20\n        /* \"#utility.yul\":4746:4749   */\n      dup7\n        /* \"#utility.yul\":4742:4756   */\n      add\n        /* \"#utility.yul\":4728:4740   */\n      dup3\n        /* \"#utility.yul\":4694:4757   */\n      tag_109\n      jump\t// in\n    tag_188:\n        /* \"#utility.yul\":4601:4767   */\n      pop\n        /* \"#utility.yul\":4854:4858   */\n      0x40\n        /* \"#utility.yul\":4847:4852   */\n      dup4\n        /* \"#utility.yul\":4843:4859   */\n      add\n        /* \"#utility.yul\":4837:4860   */\n      mload\n        /* \"#utility.yul\":4873:4936   */\n      tag_189\n        /* \"#utility.yul\":4930:4934   */\n      0x40\n        /* \"#utility.yul\":4925:4928   */\n      dup7\n        /* \"#utility.yul\":4921:4935   */\n      add\n        /* \"#utility.yul\":4907:4919   */\n      dup3\n        /* \"#utility.yul\":4873:4936   */\n      tag_109\n      jump\t// in\n    tag_189:\n        /* \"#utility.yul\":4777:4946   */\n      pop\n        /* \"#utility.yul\":4963:4967   */\n      dup1\n        /* \"#utility.yul\":4956:4967   */\n      swap2\n      pop\n        /* \"#utility.yul\":4308:4973   */\n      pop\n        /* \"#utility.yul\":4190:4973   */\n      swap3\n      swap2\n      pop\n      pop\n      jump\t// out\n        /* \"#utility.yul\":4979:5243   */\n    tag_111:\n        /* \"#utility.yul\":5102:5112   */\n      0x00\n        /* \"#utility.yul\":5137:5237   */\n      tag_191\n        /* \"#utility.yul\":5233:5236   */\n      dup4\n        /* \"#utility.yul\":5225:5231   */\n      dup4\n        /* \"#utility.yul\":5137:5237   */\n      tag_110\n      jump\t// in\n    tag_191:\n        /* \"#utility.yul\":5123:5237   */\n      swap1\n      pop\n        /* \"#utility.yul\":4979:5243   */\n      swap3\n      swap2\n      pop\n      pop\n      jump\t// out\n        /* \"#utility.yul\":5249:5389   */\n    tag_112:\n        /* \"#utility.yul\":5346:5350   */\n      0x00\n        /* \"#utility.yul\":5378:5382   */\n      0x20\n        /* \"#utility.yul\":5373:5376   */\n      dup3\n        /* \"#utility.yul\":5369:5383   */\n      add\n        /* \"#utility.yul\":5361:5383   */\n      swap1\n      pop\n        /* \"#utility.yul\":5249:5389   */\n      swap2\n      swap1\n      pop\n      jump\t// out\n        /* \"#utility.yul\":5489:6616   */\n    tag_113:\n        /* \"#utility.yul\":5662:5665   */\n      0x00\n        /* \"#utility.yul\":5691:5772   */\n      tag_194\n        /* \"#utility.yul\":5766:5771   */\n      dup3\n        /* \"#utility.yul\":5691:5772   */\n      tag_101\n      jump\t// in\n    tag_194:\n        /* \"#utility.yul\":5788:5901   */\n      tag_195\n        /* \"#utility.yul\":5894:5900   */\n      dup2\n        /* \"#utility.yul\":5889:5892   */\n      dup6\n        /* \"#utility.yul\":5788:5901   */\n      tag_102\n      jump\t// in\n    tag_195:\n        /* \"#utility.yul\":5781:5901   */\n      swap4\n      pop\n        /* \"#utility.yul\":5927:5930   */\n      dup4\n        /* \"#utility.yul\":5972:5976   */\n      0x20\n        /* \"#utility.yul\":5964:5970   */\n      dup3\n        /* \"#utility.yul\":5960:5977   */\n      mul\n        /* \"#utility.yul\":5955:5958   */\n      dup6\n        /* \"#utility.yul\":5951:5978   */\n      add\n        /* \"#utility.yul\":6002:6085   */\n      tag_196\n        /* \"#utility.yul\":6079:6084   */\n      dup6\n        /* \"#utility.yul\":6002:6085   */\n      tag_103\n      jump\t// in\n    tag_196:\n        /* \"#utility.yul\":6108:6115   */\n      dup1\n        /* \"#utility.yul\":6139:6140   */\n      0x00\n        /* \"#utility.yul\":6124:6571   */\n    tag_197:\n        /* \"#utility.yul\":6149:6155   */\n      dup6\n        /* \"#utility.yul\":6146:6147   */\n      dup2\n        /* \"#utility.yul\":6143:6156   */\n      lt\n        /* \"#utility.yul\":6124:6571   */\n      iszero\n      tag_199\n      jumpi\n        /* \"#utility.yul\":6220:6229   */\n      dup5\n        /* \"#utility.yul\":6214:6218   */\n      dup5\n        /* \"#utility.yul\":6210:6230   */\n      sub\n        /* \"#utility.yul\":6205:6208   */\n      dup10\n        /* \"#utility.yul\":6198:6231   */\n      mstore\n        /* \"#utility.yul\":6271:6277   */\n      dup2\n        /* \"#utility.yul\":6265:6278   */\n      mload\n        /* \"#utility.yul\":6299:6417   */\n      tag_200\n        /* \"#utility.yul\":6412:6416   */\n      dup6\n        /* \"#utility.yul\":6397:6410   */\n      dup3\n        /* \"#utility.yul\":6299:6417   */\n      tag_111\n      jump\t// in\n    tag_200:\n        /* \"#utility.yul\":6291:6417   */\n      swap5\n      pop\n        /* \"#utility.yul\":6440:6527   */\n      tag_201\n        /* \"#utility.yul\":6520:6526   */\n      dup4\n        /* \"#utility.yul\":6440:6527   */\n      tag_112\n      jump\t// in\n    tag_201:\n        /* \"#utility.yul\":6430:6527   */\n      swap3\n      pop\n        /* \"#utility.yul\":6556:6560   */\n      0x20\n        /* \"#utility.yul\":6551:6554   */\n      dup11\n        /* \"#utility.yul\":6547:6561   */\n      add\n        /* \"#utility.yul\":6540:6561   */\n      swap10\n      pop\n        /* \"#utility.yul\":6184:6571   */\n      pop\n        /* \"#utility.yul\":6171:6172   */\n      0x01\n        /* \"#utility.yul\":6168:6169   */\n      dup2\n        /* \"#utility.yul\":6164:6173   */\n      add\n        /* \"#utility.yul\":6159:6173   */\n      swap1\n      pop\n        /* \"#utility.yul\":6124:6571   */\n      jump(tag_197)\n    tag_199:\n        /* \"#utility.yul\":6128:6142   */\n      pop\n        /* \"#utility.yul\":6587:6591   */\n      dup3\n        /* \"#utility.yul\":6580:6591   */\n      swap8\n      pop\n        /* \"#utility.yul\":6607:6610   */\n      dup8\n        /* \"#utility.yul\":6600:6610   */\n      swap6\n      pop\n        /* \"#utility.yul\":5667:6616   */\n      pop\n      pop\n      pop\n      pop\n      pop\n        /* \"#utility.yul\":5489:6616   */\n      swap3\n      swap2\n      pop\n      pop\n      jump\t// out\n        /* \"#utility.yul\":6622:7103   */\n    tag_40:\n        /* \"#utility.yul\":6819:6823   */\n      0x00\n        /* \"#utility.yul\":6857:6859   */\n      0x20\n        /* \"#utility.yul\":6846:6855   */\n      dup3\n        /* \"#utility.yul\":6842:6860   */\n      add\n        /* \"#utility.yul\":6834:6860   */\n      swap1\n      pop\n        /* \"#utility.yul\":6906:6915   */\n      dup2\n        /* \"#utility.yul\":6900:6904   */\n      dup2\n        /* \"#utility.yul\":6896:6916   */\n      sub\n        /* \"#utility.yul\":6892:6893   */\n      0x00\n        /* \"#utility.yul\":6881:6890   */\n      dup4\n        /* \"#utility.yul\":6877:6894   */\n      add\n        /* \"#utility.yul\":6870:6917   */\n      mstore\n        /* \"#utility.yul\":6934:7096   */\n      tag_203\n        /* \"#utility.yul\":7091:7095   */\n      dup2\n        /* \"#utility.yul\":7082:7088   */\n      dup5\n        /* \"#utility.yul\":6934:7096   */\n      tag_113\n      jump\t// in\n    tag_203:\n        /* \"#utility.yul\":6926:7096   */\n      swap1\n      pop\n        /* \"#utility.yul\":6622:7103   */\n      swap3\n      swap2\n      pop\n      pop\n      jump\t// out\n        /* \"#utility.yul\":7109:7583   */\n    tag_46:\n        /* \"#utility.yul\":7177:7183   */\n      0x00\n        /* \"#utility.yul\":7185:7191   */\n      0x00\n        /* \"#utility.yul\":7234:7236   */\n      0x40\n        /* \"#utility.yul\":7222:7231   */\n      dup4\n        /* \"#utility.yul\":7213:7220   */\n      dup6\n        /* \"#utility.yul\":7209:7232   */\n      sub\n        /* \"#utility.yul\":7205:7237   */\n      slt\n        /* \"#utility.yul\":7202:7321   */\n      iszero\n      tag_205\n      jumpi\n        /* \"#utility.yul\":7240:7319   */\n      tag_206\n      tag_92\n      jump\t// in\n    tag_206:\n        /* \"#utility.yul\":7202:7321   */\n    tag_205:\n        /* \"#utility.yul\":7360:7361   */\n      0x00\n        /* \"#utility.yul\":7385:7438   */\n      tag_207\n        /* \"#utility.yul\":7430:7437   */\n      dup6\n        /* \"#utility.yul\":7421:7427   */\n      dup3\n        /* \"#utility.yul\":7410:7419   */\n      dup7\n        /* \"#utility.yul\":7406:7428   */\n      add\n        /* \"#utility.yul\":7385:7438   */\n      tag_97\n      jump\t// in\n    tag_207:\n        /* \"#utility.yul\":7375:7438   */\n      swap3\n      pop\n        /* \"#utility.yul\":7331:7448   */\n      pop\n        /* \"#utility.yul\":7487:7489   */\n      0x20\n        /* \"#utility.yul\":7513:7566   */\n      tag_208\n        /* \"#utility.yul\":7558:7565   */\n      dup6\n        /* \"#utility.yul\":7549:7555   */\n      dup3\n        /* \"#utility.yul\":7538:7547   */\n      dup7\n        /* \"#utility.yul\":7534:7556   */\n      add\n        /* \"#utility.yul\":7513:7566   */\n      tag_99\n      jump\t// in\n    tag_208:\n        /* \"#utility.yul\":7503:7566   */\n      swap2\n      pop\n        /* \"#utility.yul\":7458:7576   */\n      pop\n        /* \"#utility.yul\":7109:7583   */\n      swap3\n      pop\n      swap3\n      swap1\n      pop\n      jump\t// out\n        /* \"#utility.yul\":7589:7758   */\n    tag_114:\n        /* \"#utility.yul\":7673:7684   */\n      0x00\n        /* \"#utility.yul\":7707:7713   */\n      dup3\n        /* \"#utility.yul\":7702:7705   */\n      dup3\n        /* \"#utility.yul\":7695:7714   */\n      mstore\n        /* \"#utility.yul\":7747:7751   */\n      0x20\n        /* \"#utility.yul\":7742:7745   */\n      dup3\n        /* \"#utility.yul\":7738:7752   */\n      add\n        /* \"#utility.yul\":7723:7752   */\n      swap1\n      pop\n        /* \"#utility.yul\":7589:7758   */\n      swap3\n      swap2\n      pop\n      pop\n      jump\t// out\n        /* \"#utility.yul\":7764:8141   */\n    tag_115:\n        /* \"#utility.yul\":7852:7855   */\n      0x00\n        /* \"#utility.yul\":7880:7919   */\n      tag_211\n        /* \"#utility.yul\":7913:7918   */\n      dup3\n        /* \"#utility.yul\":7880:7919   */\n      tag_104\n      jump\t// in\n    tag_211:\n        /* \"#utility.yul\":7935:8006   */\n      tag_212\n        /* \"#utility.yul\":7999:8005   */\n      dup2\n        /* \"#utility.yul\":7994:7997   */\n      dup6\n        /* \"#utility.yul\":7935:8006   */\n      tag_114\n      jump\t// in\n    tag_212:\n        /* \"#utility.yul\":7928:8006   */\n      swap4\n      pop\n        /* \"#utility.yul\":8015:8080   */\n      tag_213\n        /* \"#utility.yul\":8073:8079   */\n      dup2\n        /* \"#utility.yul\":8068:8071   */\n      dup6\n        /* \"#utility.yul\":8061:8065   */\n      0x20\n        /* \"#utility.yul\":8054:8059   */\n      dup7\n        /* \"#utility.yul\":8050:8066   */\n      add\n        /* \"#utility.yul\":8015:8080   */\n      tag_106\n      jump\t// in\n    tag_213:\n        /* \"#utility.yul\":8105:8134   */\n      tag_214\n        /* \"#utility.yul\":8127:8133   */\n      dup2\n        /* \"#utility.yul\":8105:8134   */\n      tag_107\n      jump\t// in\n    tag_214:\n        /* \"#utility.yul\":8100:8103   */\n      dup5\n        /* \"#utility.yul\":8096:8135   */\n      add\n        /* \"#utility.yul\":8089:8135   */\n      swap2\n      pop\n        /* \"#utility.yul\":7856:8141   */\n      pop\n        /* \"#utility.yul\":7764:8141   */\n      swap3\n      swap2\n      pop\n      pop\n      jump\t// out\n        /* \"#utility.yul\":8147:8680   */\n    tag_49:\n        /* \"#utility.yul\":8316:8320   */\n      0x00\n        /* \"#utility.yul\":8354:8356   */\n      0x60\n        /* \"#utility.yul\":8343:8352   */\n      dup3\n        /* \"#utility.yul\":8339:8357   */\n      add\n        /* \"#utility.yul\":8331:8357   */\n      swap1\n      pop\n        /* \"#utility.yul\":8403:8412   */\n      dup2\n        /* \"#utility.yul\":8397:8401   */\n      dup2\n        /* \"#utility.yul\":8393:8413   */\n      sub\n        /* \"#utility.yul\":8389:8390   */\n      0x00\n        /* \"#utility.yul\":8378:8387   */\n      dup4\n        /* \"#utility.yul\":8374:8391   */\n      add\n        /* \"#utility.yul\":8367:8414   */\n      mstore\n        /* \"#utility.yul\":8431:8509   */\n      tag_216\n        /* \"#utility.yul\":8504:8508   */\n      dup2\n        /* \"#utility.yul\":8495:8501   */\n      dup7\n        /* \"#utility.yul\":8431:8509   */\n      tag_115\n      jump\t// in\n    tag_216:\n        /* \"#utility.yul\":8423:8509   */\n      swap1\n      pop\n        /* \"#utility.yul\":8519:8591   */\n      tag_217\n        /* \"#utility.yul\":8587:8589   */\n      0x20\n        /* \"#utility.yul\":8576:8585   */\n      dup4\n        /* \"#utility.yul\":8572:8590   */\n      add\n        /* \"#utility.yul\":8563:8569   */\n      dup6\n        /* \"#utility.yul\":8519:8591   */\n      tag_90\n      jump\t// in\n    tag_217:\n        /* \"#utility.yul\":8601:8673   */\n      tag_218\n        /* \"#utility.yul\":8669:8671   */\n      0x40\n        /* \"#utility.yul\":8658:8667   */\n      dup4\n        /* \"#utility.yul\":8654:8672   */\n      add\n        /* \"#utility.yul\":8645:8651   */\n      dup5\n        /* \"#utility.yul\":8601:8673   */\n      tag_90\n      jump\t// in\n    tag_218:\n        /* \"#utility.yul\":8147:8680   */\n      swap5\n      swap4\n      pop\n      pop\n      pop\n      pop\n      jump\t// out\n        /* \"#utility.yul\":8686:8856   */\n    tag_116:\n        /* \"#utility.yul\":8826:8848   */\n      0x496e73756666696369656e742062616c616e6365000000000000000000000000\n        /* \"#utility.yul\":8822:8823   */\n      0x00\n        /* \"#utility.yul\":8814:8820   */\n      dup3\n        /* \"#utility.yul\":8810:8824   */\n      add\n        /* \"#utility.yul\":8803:8849   */\n      mstore\n        /* \"#utility.yul\":8686:8856   */\n      pop\n      jump\t// out\n        /* \"#utility.yul\":8862:9228   */\n    tag_117:\n        /* \"#utility.yul\":9004:9007   */\n      0x00\n        /* \"#utility.yul\":9025:9092   */\n      tag_221\n        /* \"#utility.yul\":9089:9091   */\n      0x14\n        /* \"#utility.yul\":9084:9087   */\n      dup4\n        /* \"#utility.yul\":9025:9092   */\n      tag_114\n      jump\t// in\n    tag_221:\n        /* \"#utility.yul\":9018:9092   */\n      swap2\n      pop\n        /* \"#utility.yul\":9101:9194   */\n      tag_222\n        /* \"#utility.yul\":9190:9193   */\n      dup3\n        /* \"#utility.yul\":9101:9194   */\n      tag_116\n      jump\t// in\n    tag_222:\n        /* \"#utility.yul\":9219:9221   */\n      0x20\n        /* \"#utility.yul\":9214:9217   */\n      dup3\n        /* \"#utility.yul\":9210:9222   */\n      add\n        /* \"#utility.yul\":9203:9222   */\n      swap1\n      pop\n        /* \"#utility.yul\":8862:9228   */\n      swap2\n      swap1\n      pop\n      jump\t// out\n        /* \"#utility.yul\":9234:9653   */\n    tag_54:\n        /* \"#utility.yul\":9400:9404   */\n      0x00\n        /* \"#utility.yul\":9438:9440   */\n      0x20\n        /* \"#utility.yul\":9427:9436   */\n      dup3\n        /* \"#utility.yul\":9423:9441   */\n      add\n        /* \"#utility.yul\":9415:9441   */\n      swap1\n      pop\n        /* \"#utility.yul\":9487:9496   */\n      dup2\n        /* \"#utility.yul\":9481:9485   */\n      dup2\n        /* \"#utility.yul\":9477:9497   */\n      sub\n        /* \"#utility.yul\":9473:9474   */\n      0x00\n        /* \"#utility.yul\":9462:9471   */\n      dup4\n        /* \"#utility.yul\":9458:9475   */\n      add\n        /* \"#utility.yul\":9451:9498   */\n      mstore\n        /* \"#utility.yul\":9515:9646   */\n      tag_224\n        /* \"#utility.yul\":9641:9645   */\n      dup2\n        /* \"#utility.yul\":9515:9646   */\n      tag_117\n      jump\t// in\n    tag_224:\n        /* \"#utility.yul\":9507:9646   */\n      swap1\n      pop\n        /* \"#utility.yul\":9234:9653   */\n      swap2\n      swap1\n      pop\n      jump\t// out\n        /* \"#utility.yul\":9659:9839   */\n    tag_118:\n        /* \"#utility.yul\":9707:9784   */\n      0x4e487b7100000000000000000000000000000000000000000000000000000000\n        /* \"#utility.yul\":9704:9705   */\n      0x00\n        /* \"#utility.yul\":9697:9785   */\n      mstore\n        /* \"#utility.yul\":9804:9808   */\n      0x11\n        /* \"#utility.yul\":9801:9802   */\n      0x04\n        /* \"#utility.yul\":9794:9809   */\n      mstore\n        /* \"#utility.yul\":9828:9832   */\n      0x24\n        /* \"#utility.yul\":9825:9826   */\n      0x00\n        /* \"#utility.yul\":9818:9833   */\n      revert\n        /* \"#utility.yul\":9845:10039   */\n    tag_56:\n        /* \"#utility.yul\":9885:9889   */\n      0x00\n        /* \"#utility.yul\":9905:9925   */\n      tag_227\n        /* \"#utility.yul\":9923:9924   */\n      dup3\n        /* \"#utility.yul\":9905:9925   */\n      tag_89\n      jump\t// in\n    tag_227:\n        /* \"#utility.yul\":9900:9925   */\n      swap2\n      pop\n        /* \"#utility.yul\":9939:9959   */\n      tag_228\n        /* \"#utility.yul\":9957:9958   */\n      dup4\n        /* \"#utility.yul\":9939:9959   */\n      tag_89\n      jump\t// in\n    tag_228:\n        /* \"#utility.yul\":9934:9959   */\n      swap3\n      pop\n        /* \"#utility.yul\":9983:9984   */\n      dup3\n        /* \"#utility.yul\":9980:9981   */\n      dup3\n        /* \"#utility.yul\":9976:9985   */\n      sub\n        /* \"#utility.yul\":9968:9985   */\n      swap1\n      pop\n        /* \"#utility.yul\":10007:10008   */\n      dup2\n        /* \"#utility.yul\":10001:10005   */\n      dup2\n        /* \"#utility.yul\":9998:10009   */\n      gt\n        /* \"#utility.yul\":9995:10032   */\n      iszero\n      tag_229\n      jumpi\n        /* \"#utility.yul\":10012:10030   */\n      tag_230\n      tag_118\n      jump\t// in\n    tag_230:\n        /* \"#utility.yul\":9995:10032   */\n    tag_229:\n        /* \"#utility.yul\":9845:10039   */\n      swap3\n      swap2\n      pop\n      pop\n      jump\t// out\n        /* \"#utility.yul\":10045:10225   */\n    tag_119:\n        /* \"#utility.yul\":10093:10170   */\n      0x4e487b7100000000000000000000000000000000000000000000000000000000\n        /* \"#utility.yul\":10090:10091   */\n      0x00\n        /* \"#utility.yul\":10083:10171   */\n      mstore\n        /* \"#utility.yul\":10190:10194   */\n      0x41\n        /* \"#utility.yul\":10187:10188   */\n      0x04\n        /* \"#utility.yul\":10180:10195   */\n      mstore\n        /* \"#utility.yul\":10214:10218   */\n      0x24\n        /* \"#utility.yul\":10211:10212   */\n      0x00\n        /* \"#utility.yul\":10204:10219   */\n      revert\n        /* \"#utility.yul\":10231:10411   */\n    tag_120:\n        /* \"#utility.yul\":10279:10356   */\n      0x4e487b7100000000000000000000000000000000000000000000000000000000\n        /* \"#utility.yul\":10276:10277   */\n      0x00\n        /* \"#utility.yul\":10269:10357   */\n      mstore\n        /* \"#utility.yul\":10376:10380   */\n      0x22\n        /* \"#utility.yul\":10373:10374   */\n      0x04\n        /* \"#utility.yul\":10366:10381   */\n      mstore\n        /* \"#utility.yul\":10400:10404   */\n      0x24\n        /* \"#utility.yul\":10397:10398   */\n      0x00\n        /* \"#utility.yul\":10390:10405   */\n      revert\n        /* \"#utility.yul\":10417:10737   */\n    tag_68:\n        /* \"#utility.yul\":10461:10467   */\n      0x00\n        /* \"#utility.yul\":10498:10499   */\n      0x02\n        /* \"#utility.yul\":10492:10496   */\n      dup3\n        /* \"#utility.yul\":10488:10500   */\n      div\n        /* \"#utility.yul\":10478:10500   */\n      swap1\n      pop\n        /* \"#utility.yul\":10545:10546   */\n      0x01\n        /* \"#utility.yul\":10539:10543   */\n      dup3\n        /* \"#utility.yul\":10535:10547   */\n      and\n        /* \"#utility.yul\":10566:10584   */\n      dup1\n        /* \"#utility.yul\":10556:10637   */\n      tag_234\n      jumpi\n        /* \"#utility.yul\":10622:10626   */\n      0x7f\n        /* \"#utility.yul\":10614:10620   */\n      dup3\n        /* \"#utility.yul\":10610:10627   */\n      and\n        /* \"#utility.yul\":10600:10627   */\n      swap2\n      pop\n        /* \"#utility.yul\":10556:10637   */\n    tag_234:\n        /* \"#utility.yul\":10684:10686   */\n      0x20\n        /* \"#utility.yul\":10676:10682   */\n      dup3\n        /* \"#utility.yul\":10673:10687   */\n      lt\n        /* \"#utility.yul\":10653:10671   */\n      dup2\n        /* \"#utility.yul\":10650:10688   */\n      sub\n        /* \"#utility.yul\":10647:10731   */\n      tag_235\n      jumpi\n        /* \"#utility.yul\":10703:10721   */\n      tag_236\n      tag_120\n      jump\t// in\n    tag_236:\n        /* \"#utility.yul\":10647:10731   */\n    tag_235:\n        /* \"#utility.yul\":10468:10737   */\n      pop\n        /* \"#utility.yul\":10417:10737   */\n      swap2\n      swap1\n      pop\n      jump\t// out\n        /* \"#utility.yul\":10743:10884   */\n    tag_121:\n        /* \"#utility.yul\":10792:10796   */\n      0x00\n        /* \"#utility.yul\":10815:10818   */\n      dup2\n        /* \"#utility.yul\":10807:10818   */\n      swap1\n      pop\n        /* \"#utility.yul\":10838:10841   */\n      dup2\n        /* \"#utility.yul\":10835:10836   */\n      0x00\n        /* \"#utility.yul\":10828:10842   */\n      mstore\n        /* \"#utility.yul\":10872:10876   */\n      0x20\n        /* \"#utility.yul\":10869:10870   */\n      0x00\n        /* \"#utility.yul\":10859:10877   */\n      keccak256\n        /* \"#utility.yul\":10851:10877   */\n      swap1\n      pop\n        /* \"#utility.yul\":10743:10884   */\n      swap2\n      swap1\n      pop\n      jump\t// out\n        /* \"#utility.yul\":10890:10983   */\n    tag_122:\n        /* \"#utility.yul\":10927:10933   */\n      0x00\n        /* \"#utility.yul\":10974:10976   */\n      0x20\n        /* \"#utility.yul\":10969:10971   */\n      0x1f\n        /* \"#utility.yul\":10962:10967   */\n      dup4\n        /* \"#utility.yul\":10958:10972   */\n      add\n        /* \"#utility.yul\":10954:10977   */\n      div\n        /* \"#utility.yul\":10944:10977   */\n      swap1\n      pop\n        /* \"#utility.yul\":10890:10983   */\n      swap2\n      swap1\n      pop\n      jump\t// out\n        /* \"#utility.yul\":10989:11096   */\n    tag_123:\n        /* \"#utility.yul\":11033:11041   */\n      0x00\n        /* \"#utility.yul\":11083:11088   */\n      dup3\n        /* \"#utility.yul\":11077:11081   */\n      dup3\n        /* \"#utility.yul\":11073:11089   */\n      shl\n        /* \"#utility.yul\":11052:11089   */\n      swap1\n      pop\n        /* \"#utility.yul\":10989:11096   */\n      swap3\n      swap2\n      pop\n      pop\n      jump\t// out\n        /* \"#utility.yul\":11102:11495   */\n    tag_124:\n        /* \"#utility.yul\":11171:11177   */\n      0x00\n        /* \"#utility.yul\":11221:11222   */\n      0x08\n        /* \"#utility.yul\":11209:11219   */\n      dup4\n        /* \"#utility.yul\":11205:11223   */\n      mul\n        /* \"#utility.yul\":11244:11341   */\n      tag_241\n        /* \"#utility.yul\":11274:11340   */\n      0xffffffffffffffffffffffffffffffffffffffffffffffffffffffffffffffff\n        /* \"#utility.yul\":11263:11272   */\n      dup3\n        /* \"#utility.yul\":11244:11341   */\n      tag_123\n      jump\t// in\n    tag_241:\n        /* \"#utility.yul\":11362:11401   */\n      tag_242\n        /* \"#utility.yul\":11392:11400   */\n      dup7\n        /* \"#utility.yul\":11381:11390   */\n      dup4\n        /* \"#utility.yul\":11362:11401   */\n      tag_123\n      jump\t// in\n    tag_242:\n        /* \"#utility.yul\":11350:11401   */\n      swap6\n      pop\n        /* \"#utility.yul\":11434:11438   */\n      dup1\n        /* \"#utility.yul\":11430:11439   */\n      not\n        /* \"#utility.yul\":11423:11428   */\n      dup5\n        /* \"#utility.yul\":11419:11440   */\n      and\n        /* \"#utility.yul\":11410:11440   */\n      swap4\n      pop\n        /* \"#utility.yul\":11483:11487   */\n      dup1\n        /* \"#utility.yul\":11473:11481   */\n      dup7\n        /* \"#utility.yul\":11469:11488   */\n      and\n        /* \"#utility.yul\":11462:11467   */\n      dup5\n        /* \"#utility.yul\":11459:11489   */\n      or\n        /* \"#utility.yul\":11449:11489   */\n      swap3\n      pop\n        /* \"#utility.yul\":11178:11495   */\n      pop\n      pop\n        /* \"#utility.yul\":11102:11495   */\n      swap4\n      swap3\n      pop\n      pop\n      pop\n      jump\t// out\n        /* \"#utility.yul\":11501:11561   */\n    tag_125:\n        /* \"#utility.yul\":11529:11532   */\n      0x00\n        /* \"#utility.yul\":11550:11555   */\n      dup2\n        /* \"#utility.yul\":11543:11555   */\n      swap1\n      pop\n        /* \"#utility.yul\":11501:11561   */\n      swap2\n      swap1\n      pop\n      jump\t// out\n        /* \"#utility.yul\":11567:11709   */\n    tag_126:\n        /* \"#utility.yul\":11617:11626   */\n      0x00\n        /* \"#utility.yul\":11650:11703   */\n      tag_245\n        /* \"#utility.yul\":11668:11702   */\n      tag_246\n        /* \"#utility.yul\":11677:11701   */\n      tag_247\n        /* \"#utility.yul\":11695:11700   */\n      dup5\n        /* \"#utility.yul\":11677:11701   */\n      tag_89\n      jump\t// in\n    tag_247:\n        /* \"#utility.yul\":11668:11702   */\n      tag_125\n      jump\t// in\n    tag_246:\n        /* \"#utility.yul\":11650:11703   */\n      tag_89\n      jump\t// in\n    tag_245:\n        /* \"#utility.yul\":11637:11703   */\n      swap1\n      pop\n        /* \"#utility.yul\":11567:11709   */\n      swap2\n      swap1\n      pop\n      jump\t// out\n        /* \"#utility.yul\":11715:11790   */\n    tag_127:\n        /* \"#utility.yul\":11758:11761   */\n      0x00\n        /* \"#utility.yul\":11779:11784   */\n      dup2\n        /* \"#utility.yul\":11772:11784   */\n      swap1\n      pop\n        /* \"#utility.yul\":11715:11790   */\n      swap2\n      swap1\n      pop\n      jump\t// out\n        /* \"#utility.yul\":11796:12065   */\n    tag_128:\n        /* \"#utility.yul\":11906:11945   */\n      tag_250\n        /* \"#utility.yul\":11937:11944   */\n      dup4\n        /* \"#utility.yul\":11906:11945   */\n      tag_126\n      jump\t// in\n    tag_250:\n        /* \"#utility.yul\":11967:12058   */\n      tag_251\n        /* \"#utility.yul\":12016:12057   */\n      tag_252\n        /* \"#utility.yul\":12040:12056   */\n      dup3\n        /* \"#utility.yul\":12016:12057   */\n      tag_127\n      jump\t// in\n    tag_252:\n        /* \"#utility.yul\":12008:12014   */\n      dup5\n        /* \"#utility.yul\":12001:12005   */\n      dup5\n        /* \"#utility.yul\":11995:12006   */\n      sload\n        /* \"#utility.yul\":11967:12058   */\n      tag_124\n      jump\t// in\n    tag_251:\n        /* \"#utility.yul\":11961:11965   */\n      dup3\n        /* \"#utility.yul\":11954:12059   */\n      sstore\n        /* \"#utility.yul\":11872:12065   */\n      pop\n        /* \"#utility.yul\":11796:12065   */\n      pop\n      pop\n      pop\n      jump\t// out\n        /* \"#utility.yul\":12071:12144   */\n    tag_129:\n        /* \"#utility.yul\":12116:12119   */\n      0x00\n        /* \"#utility.yul\":12137:12138   */\n      0x00\n        /* \"#utility.yul\":12130:12138   */\n      swap1\n      pop\n        /* \"#utility.yul\":12071:12144   */\n      swap1\n      jump\t// out\n        /* \"#utility.yul\":12150:12339   */\n    tag_130:\n        /* \"#utility.yul\":12227:12259   */\n      tag_255\n      tag_129\n      jump\t// in\n    tag_255:\n        /* \"#utility.yul\":12268:12333   */\n      tag_256\n        /* \"#utility.yul\":12326:12332   */\n      dup2\n        /* \"#utility.yul\":12318:12324   */\n      dup5\n        /* \"#utility.yul\":12312:12316   */\n      dup5\n        /* \"#utility.yul\":12268:12333   */\n      tag_128\n      jump\t// in\n    tag_256:\n        /* \"#utility.yul\":12203:12339   */\n      pop\n        /* \"#utility.yul\":12150:12339   */\n      pop\n      pop\n      jump\t// out\n        /* \"#utility.yul\":12345:12531   */\n    tag_131:\n        /* \"#utility.yul\":12405:12525   */\n    tag_258:\n        /* \"#utility.yul\":12422:12425   */\n      dup2\n        /* \"#utility.yul\":12415:12420   */\n      dup2\n        /* \"#utility.yul\":12412:12426   */\n      lt\n        /* \"#utility.yul\":12405:12525   */\n      iszero\n      tag_260\n      jumpi\n        /* \"#utility.yul\":12476:12515   */\n      tag_261\n        /* \"#utility.yul\":12513:12514   */\n      0x00\n        /* \"#utility.yul\":12506:12511   */\n      dup3\n        /* \"#utility.yul\":12476:12515   */\n      tag_130\n      jump\t// in\n    tag_261:\n        /* \"#utility.yul\":12449:12450   */\n      0x01\n        /* \"#utility.yul\":12442:12447   */\n      dup2\n        /* \"#utility.yul\":12438:12451   */\n      add\n        /* \"#utility.yul\":12429:12451   */\n      swap1\n      pop\n        /* \"#utility.yul\":12405:12525   */\n      jump(tag_258)\n    tag_260:\n        /* \"#utility.yul\":12345:12531   */\n      pop\n      pop\n      jump\t// out\n        /* \"#utility.yul\":12537:13080   */\n    tag_132:\n        /* \"#utility.yul\":12638:12640   */\n      0x1f\n        /* \"#utility.yul\":12633:12636   */\n      dup3\n        /* \"#utility.yul\":12630:12641   */\n      gt\n        /* \"#utility.yul\":12627:13073   */\n      iszero\n      tag_263\n      jumpi\n        /* \"#utility.yul\":12672:12710   */\n      tag_264\n        /* \"#utility.yul\":12704:12709   */\n      dup2\n        /* \"#utility.yul\":12672:12710   */\n      tag_121\n      jump\t// in\n    tag_264:\n        /* \"#utility.yul\":12756:12785   */\n      tag_265\n        /* \"#utility.yul\":12774:12784   */\n      dup5\n        /* \"#utility.yul\":12756:12785   */\n      tag_122\n      jump\t// in\n    tag_265:\n        /* \"#utility.yul\":12746:12754   */\n      dup2\n        /* \"#utility.yul\":12742:12786   */\n      add\n        /* \"#utility.yul\":12939:12941   */\n      0x20\n        /* \"#utility.yul\":12927:12937   */\n      dup6\n        /* \"#utility.yul\":12924:12942   */\n      lt\n        /* \"#utility.yul\":12921:12970   */\n      iszero\n      tag_266\n      jumpi\n        /* \"#utility.yul\":12960:12968   */\n      dup2\n        /* \"#utility.yul\":12945:12968   */\n      swap1\n      pop\n        /* \"#utility.yul\":12921:12970   */\n    tag_266:\n        /* \"#utility.yul\":12983:13063   */\n      tag_267\n        /* \"#utility.yul\":13039:13061   */\n      tag_268\n        /* \"#utility.yul\":13057:13060   */\n      dup6\n        /* \"#utility.yul\":13039:13061   */\n      tag_122\n      jump\t// in\n    tag_268:\n        /* \"#utility.yul\":13029:13037   */\n      dup4\n        /* \"#utility.yul\":13025:13062   */\n      add\n        /* \"#utility.yul\":13012:13023   */\n      dup3\n        /* \"#utility.yul\":12983:13063   */\n      tag_131\n      jump\t// in\n    tag_267:\n        /* \"#utility.yul\":12642:13073   */\n      pop\n      pop\n        /* \"#utility.yul\":12627:13073   */\n    tag_263:\n        /* \"#utility.yul\":12537:13080   */\n      pop\n      pop\n      pop\n      jump\t// out\n        /* \"#utility.yul\":13086:13203   */\n    tag_133:\n        /* \"#utility.yul\":13140:13148   */\n      0x00\n        /* \"#utility.yul\":13190:13195   */\n      dup3\n        /* \"#utility.yul\":13184:13188   */\n      dup3\n        /* \"#utility.yul\":13180:13196   */\n      shr\n        /* \"#utility.yul\":13159:13196   */\n      swap1\n      pop\n        /* \"#utility.yul\":13086:13203   */\n      swap3\n      swap2\n      pop\n      pop\n      jump\t// out\n        /* \"#utility.yul\":13209:13378   */\n    tag_134:\n        /* \"#utility.yul\":13253:13259   */\n      0x00\n        /* \"#utility.yul\":13286:13337   */\n      tag_271\n        /* \"#utility.yul\":13334:13335   */\n      0x00\n        /* \"#utility.yul\":13330:13336   */\n      not\n        /* \"#utility.yul\":13322:13327   */\n      dup5\n        /* \"#utility.yul\":13319:13320   */\n      0x08\n        /* \"#utility.yul\":13315:13328   */\n      mul\n        /* \"#utility.yul\":13286:13337   */\n      tag_133\n      jump\t// in\n    tag_271:\n        /* \"#utility.yul\":13282:13338   */\n      not\n        /* \"#utility.yul\":13367:13371   */\n      dup1\n        /* \"#utility.yul\":13361:13365   */\n      dup4\n        /* \"#utility.yul\":13357:13372   */\n      and\n        /* \"#utility.yul\":13347:13372   */\n      swap2\n      pop\n        /* \"#utility.yul\":13260:13378   */\n      pop\n        /* \"#utility.yul\":13209:13378   */\n      swap3\n      swap2\n      pop\n      pop\n      jump\t// out\n        /* \"#utility.yul\":13383:13678   */\n    tag_135:\n        /* \"#utility.yul\":13459:13463   */\n      0x00\n        /* \"#utility.yul\":13605:13634   */\n      tag_273\n        /* \"#utility.yul\":13630:13633   */\n      dup4\n        /* \"#utility.yul\":13624:13628   */\n      dup4\n        /* \"#utility.yul\":13605:13634   */\n      tag_134\n      jump\t// in\n    tag_273:\n        /* \"#utility.yul\":13597:13634   */\n      swap2\n      pop\n        /* \"#utility.yul\":13667:13670   */\n      dup3\n        /* \"#utility.yul\":13664:13665   */\n      0x02\n        /* \"#utility.yul\":13660:13671   */\n      mul\n        /* \"#utility.yul\":13654:13658   */\n      dup3\n        /* \"#utility.yul\":13651:13672   */\n      or\n        /* \"#utility.yul\":13643:13672   */\n      swap1\n      pop\n        /* \"#utility.yul\":13383:13678   */\n      swap3\n      swap2\n      pop\n      pop\n      jump\t// out\n        /* \"#utility.yul\":13683:15078   */\n    tag_61:\n        /* \"#utility.yul\":13800:13837   */\n      tag_275\n        /* \"#utility.yul\":13833:13836   */\n      dup3\n        /* \"#utility.yul\":13800:13837   */\n      tag_104\n      jump\t// in\n    tag_275:\n        /* \"#utility.yul\":13902:13920   */\n      0xffffffffffffffff\n        /* \"#utility.yul\":13894:13900   */\n      dup2\n        /* \"#utility.yul\":13891:13921   */\n      gt\n        /* \"#utility.yul\":13888:13944   */\n      iszero\n      tag_276\n      jumpi\n        /* \"#utility.yul\":13924:13942   */\n      tag_277\n      tag_119\n      jump\t// in\n    tag_277:\n        /* \"#utility.yul\":13888:13944   */\n    tag_276:\n        /* \"#utility.yul\":13968:14006   */\n      tag_278\n        /* \"#utility.yul\":14000:14004   */\n      dup3\n        /* \"#utility.yul\":13994:14005   */\n      sload\n        /* \"#utility.yul\":13968:14006   */\n      tag_68\n      jump\t// in\n    tag_278:\n        /* \"#utility.yul\":14053:14120   */\n      tag_279\n        /* \"#utility.yul\":14113:14119   */\n      dup3\n        /* \"#utility.yul\":14105:14111   */\n      dup3\n        /* \"#utility.yul\":14099:14103   */\n      dup6\n        /* \"#utility.yul\":14053:14120   */\n      tag_132\n      jump\t// in\n    tag_279:\n        /* \"#utility.yul\":14147:14148   */\n      0x00\n        /* \"#utility.yul\":14171:14175   */\n      0x20\n        /* \"#utility.yul\":14158:14175   */\n      swap1\n      pop\n        /* \"#utility.yul\":14203:14205   */\n      0x1f\n        /* \"#utility.yul\":14195:14201   */\n      dup4\n        /* \"#utility.yul\":14192:14206   */\n      gt\n        /* \"#utility.yul\":14220:14221   */\n      0x01\n        /* \"#utility.yul\":14215:14833   */\n      dup2\n      eq\n      tag_281\n      jumpi\n        /* \"#utility.yul\":14877:14878   */\n      0x00\n        /* \"#utility.yul\":14894:14900   */\n      dup5\n        /* \"#utility.yul\":14891:14968   */\n      iszero\n      tag_282\n      jumpi\n        /* \"#utility.yul\":14943:14952   */\n      dup3\n        /* \"#utility.yul\":14938:14941   */\n      dup8\n        /* \"#utility.yul\":14934:14953   */\n      add\n        /* \"#utility.yul\":14928:14954   */\n      mload\n        /* \"#utility.yul\":14919:14954   */\n      swap1\n      pop\n        /* \"#utility.yul\":14891:14968   */\n    tag_282:\n        /* \"#utility.yul\":14994:15061   */\n      tag_283\n        /* \"#utility.yul\":15054:15060   */\n      dup6\n        /* \"#utility.yul\":15047:15052   */\n      dup3\n        /* \"#utility.yul\":14994:15061   */\n      tag_135\n      jump\t// in\n    tag_283:\n        /* \"#utility.yul\":14988:14992   */\n      dup7\n        /* \"#utility.yul\":14981:15062   */\n      sstore\n        /* \"#utility.yul\":14850:15072   */\n      pop\n        /* \"#utility.yul\":14185:15072   */\n      jump(tag_280)\n        /* \"#utility.yul\":14215:14833   */\n    tag_281:\n        /* \"#utility.yul\":14267:14271   */\n      0x1f\n        /* \"#utility.yul\":14263:14272   */\n      not\n        /* \"#utility.yul\":14255:14261   */\n      dup5\n        /* \"#utility.yul\":14251:14273   */\n      and\n        /* \"#utility.yul\":14301:14338   */\n      tag_284\n        /* \"#utility.yul\":14333:14337   */\n      dup7\n        /* \"#utility.yul\":14301:14338   */\n      tag_121\n      jump\t// in\n    tag_284:\n        /* \"#utility.yul\":14360:14361   */\n      0x00\n        /* \"#utility.yul\":14374:14582   */\n    tag_285:\n        /* \"#utility.yul\":14388:14395   */\n      dup3\n        /* \"#utility.yul\":14385:14386   */\n      dup2\n        /* \"#utility.yul\":14382:14396   */\n      lt\n        /* \"#utility.yul\":14374:14582   */\n      iszero\n      tag_287\n      jumpi\n        /* \"#utility.yul\":14467:14476   */\n      dup5\n        /* \"#utility.yul\":14462:14465   */\n      dup10\n        /* \"#utility.yul\":14458:14477   */\n      add\n        /* \"#utility.yul\":14452:14478   */\n      mload\n        /* \"#utility.yul\":14444:14450   */\n      dup3\n        /* \"#utility.yul\":14437:14479   */\n      sstore\n        /* \"#utility.yul\":14518:14519   */\n      0x01\n        /* \"#utility.yul\":14510:14516   */\n      dup3\n        /* \"#utility.yul\":14506:14520   */\n      add\n        /* \"#utility.yul\":14496:14520   */\n      swap2\n      pop\n        /* \"#utility.yul\":14565:14567   */\n      0x20\n        /* \"#utility.yul\":14554:14563   */\n      dup6\n        /* \"#utility.yul\":14550:14568   */\n      add\n        /* \"#utility.yul\":14537:14568   */\n      swap5\n      pop\n        /* \"#utility.yul\":14411:14415   */\n      0x20\n        /* \"#utility.yul\":14408:14409   */\n      dup2\n        /* \"#utility.yul\":14404:14416   */\n      add\n        /* \"#utility.yul\":14399:14416   */\n      swap1\n      pop\n        /* \"#utility.yul\":14374:14582   */\n      jump(tag_285)\n    tag_287:\n        /* \"#utility.yul\":14610:14616   */\n      dup7\n        /* \"#utility.yul\":14601:14608   */\n      dup4\n        /* \"#utility.yul\":14598:14617   */\n      lt\n        /* \"#utility.yul\":14595:14774   */\n      iszero\n      tag_288\n      jumpi\n        /* \"#utility.yul\":14668:14677   */\n      dup5\n        /* \"#utility.yul\":14663:14666   */\n      dup10\n        /* \"#utility.yul\":14659:14678   */\n      add\n        /* \"#utility.yul\":14653:14679   */\n      mload\n        /* \"#utility.yul\":14711:14759   */\n      tag_289\n        /* \"#utility.yul\":14753:14757   */\n      0x1f\n        /* \"#utility.yul\":14745:14751   */\n      dup10\n        /* \"#utility.yul\":14741:14758   */\n      and\n        /* \"#utility.yul\":14730:14739   */\n      dup3\n        /* \"#utility.yul\":14711:14759   */\n      tag_134\n      jump\t// in\n    tag_289:\n        /* \"#utility.yul\":14703:14709   */\n      dup4\n        /* \"#utility.yul\":14696:14760   */\n      sstore\n        /* \"#utility.yul\":14618:14774   */\n      pop\n        /* \"#utility.yul\":14595:14774   */\n    tag_288:\n        /* \"#utility.yul\":14820:14821   */\n      0x01\n        /* \"#utility.yul\":14816:14817   */\n      0x02\n        /* \"#utility.yul\":14808:14814   */\n      dup9\n        /* \"#utility.yul\":14804:14818   */\n      mul\n        /* \"#utility.yul\":14800:14822   */\n      add\n        /* \"#utility.yul\":14794:14798   */\n      dup9\n        /* \"#utility.yul\":14787:14823   */\n      sstore\n        /* \"#utility.yul\":14222:14833   */\n      pop\n      pop\n      pop\n        /* \"#utility.yul\":14185:15072   */\n    tag_280:\n      pop\n        /* \"#utility.yul\":13775:15078   */\n      pop\n      pop\n      pop\n        /* \"#utility.yul\":13683:15078   */\n      pop\n      pop\n      jump\t// out\n        /* \"#utility.yul\":15084:15259   */\n    tag_136:\n        /* \"#utility.yul\":15224:15251   */\n      0x4465706f73697420616d6f756e7420697320746f6f206c6f7700000000000000\n        /* \"#utility.yul\":15220:15221   */\n      0x00\n        /* \"#utility.yul\":15212:15218   */\n      dup3\n        /* \"#utility.yul\":15208:15222   */\n      add\n        /* \"#utility.yul\":15201:15252   */\n      mstore\n        /* \"#utility.yul\":15084:15259   */\n      pop\n      jump\t// out\n        /* \"#utility.yul\":15265:15631   */\n    tag_137:\n        /* \"#utility.yul\":15407:15410   */\n      0x00\n        /* \"#utility.yul\":15428:15495   */\n      tag_292\n        /* \"#utility.yul\":15492:15494   */\n      0x19\n        /* \"#utility.yul\":15487:15490   */\n      dup4\n        /* \"#utility.yul\":15428:15495   */\n      tag_114\n      jump\t// in\n    tag_292:\n        /* \"#utility.yul\":15421:15495   */\n      swap2\n      pop\n        /* \"#utility.yul\":15504:15597   */\n      tag_293\n        /* \"#utility.yul\":15593:15596   */\n      dup3\n        /* \"#utility.yul\":15504:15597   */\n      tag_136\n      jump\t// in\n    tag_293:\n        /* \"#utility.yul\":15622:15624   */\n      0x20\n        /* \"#utility.yul\":15617:15620   */\n      dup3\n        /* \"#utility.yul\":15613:15625   */\n      add\n        /* \"#utility.yul\":15606:15625   */\n      swap1\n      pop\n        /* \"#utility.yul\":15265:15631   */\n      swap2\n      swap1\n      pop\n      jump\t// out\n        /* \"#utility.yul\":15637:16056   */\n    tag_76:\n        /* \"#utility.yul\":15803:15807   */\n      0x00\n        /* \"#utility.yul\":15841:15843   */\n      0x20\n        /* \"#utility.yul\":15830:15839   */\n      dup3\n        /* \"#utility.yul\":15826:15844   */\n      add\n        /* \"#utility.yul\":15818:15844   */\n      swap1\n      pop\n        /* \"#utility.yul\":15890:15899   */\n      dup2\n        /* \"#utility.yul\":15884:15888   */\n      dup2\n        /* \"#utility.yul\":15880:15900   */\n      sub\n        /* \"#utility.yul\":15876:15877   */\n      0x00\n        /* \"#utility.yul\":15865:15874   */\n      dup4\n        /* \"#utility.yul\":15861:15878   */\n      add\n        /* \"#utility.yul\":15854:15901   */\n      mstore\n        /* \"#utility.yul\":15918:16049   */\n      tag_295\n        /* \"#utility.yul\":16044:16048   */\n      dup2\n        /* \"#utility.yul\":15918:16049   */\n      tag_137\n      jump\t// in\n    tag_295:\n        /* \"#utility.yul\":15910:16049   */\n      swap1\n      pop\n        /* \"#utility.yul\":15637:16056   */\n      swap2\n      swap1\n      pop\n      jump\t// out\n        /* \"#utility.yul\":16062:16253   */\n    tag_78:\n        /* \"#utility.yul\":16102:16105   */\n      0x00\n        /* \"#utility.yul\":16121:16141   */\n      tag_297\n        /* \"#utility.yul\":16139:16140   */\n      dup3\n        /* \"#utility.yul\":16121:16141   */\n      tag_89\n      jump\t// in\n    tag_297:\n        /* \"#utility.yul\":16116:16141   */\n      swap2\n      pop\n        /* \"#utility.yul\":16155:16175   */\n      tag_298\n        /* \"#utility.yul\":16173:16174   */\n      dup4\n        /* \"#utility.yul\":16155:16175   */\n      tag_89\n      jump\t// in\n    tag_298:\n        /* \"#utility.yul\":16150:16175   */\n      swap3\n      pop\n        /* \"#utility.yul\":16198:16199   */\n      dup3\n        /* \"#utility.yul\":16195:16196   */\n      dup3\n        /* \"#utility.yul\":16191:16200   */\n      add\n        /* \"#utility.yul\":16184:16200   */\n      swap1\n      pop\n        /* \"#utility.yul\":16219:16222   */\n      dup1\n        /* \"#utility.yul\":16216:16217   */\n      dup3\n        /* \"#utility.yul\":16213:16223   */\n      gt\n        /* \"#utility.yul\":16210:16246   */\n      iszero\n      tag_299\n      jumpi\n        /* \"#utility.yul\":16226:16244   */\n      tag_300\n      tag_118\n      jump\t// in\n    tag_300:\n        /* \"#utility.yul\":16210:16246   */\n    tag_299:\n        /* \"#utility.yul\":16062:16253   */\n      swap3\n      swap2\n      pop\n      pop\n      jump\t// out\n\n    auxdata: 0xa264697066735822122082ed0a1443a5942a53bad843a57e64df2fd33097e831632049e458b00b9599ca64736f6c634300081f0033\n}\n",
				"bytecode": {
					"linkReferences": {},
					"object": "6080604052662386f26fc100006001553480156019575f5ffd5b50335f5f6101000a81548173ffffffffffffffffffffffffffffffffffffffff021916908373ffffffffffffffffffffffffffffffffffffffff160217905550611091806100665f395ff3fe60806040526004361061007a575f3560e01c80638da5cb5b1161004d5780638da5cb5b14610136578063aa15efc814610160578063d0e30db01461018a578063e3abc2bc146101945761007a565b806312065fe01461007e57806327e235e3146100a85780632e1a7d4d146100e457806341b3d1851461010c575b5f5ffd5b348015610089575f5ffd5b506100926101d2565b60405161009f9190610877565b60405180910390f35b3480156100b3575f5ffd5b506100ce60048036038101906100c991906108ee565b610216565b6040516100db9190610877565b60405180910390f35b3480156100ef575f5ffd5b5061010a60048036038101906101059190610943565b61022b565b005b348015610117575f5ffd5b50610120610470565b60405161012d9190610877565b60405180910390f35b348015610141575f5ffd5b5061014a610476565b604051610157919061097d565b60405180910390f35b34801561016b575f5ffd5b5061017461049a565b6040516101819190610b1d565b60405180910390f35b6101926105d4565b005b34801561019f575f5ffd5b506101ba60048036038101906101b59190610b3d565b610799565b6040516101c993929190610bc3565b60405180910390f35b5f60025f3373ffffffffffffffffffffffffffffffffffffffff1673ffffffffffffffffffffffffffffffffffffffff1681526020019081526020015f2054905090565b6002602052805f5260405f205f915090505481565b8060025f3373ffffffffffffffffffffffffffffffffffffffff1673ffffffffffffffffffffffffffffffffffffffff1681526020019081526020015f205410156102ab576040517f08c379a00000000000000000000000000000000000000000000000000000000081526004016102a290610c49565b60405180910390fd5b8060025f3373ffffffffffffffffffffffffffffffffffffffff1673ffffffffffffffffffffffffffffffffffffffff1681526020019081526020015f205f8282546102f79190610c94565b925050819055503373ffffffffffffffffffffffffffffffffffffffff166108fc8290811502906040515f60405180830381858888f19350505050158015610341573d5f5f3e3d5ffd5b5060035f3373ffffffffffffffffffffffffffffffffffffffff1673ffffffffffffffffffffffffffffffffffffffff1681526020019081526020015f2060405180606001604052806040518060400160405280600a81526020017f5769746864726177616c00000000000000000000000000000000000000000000815250815260200183815260200142815250908060018154018082558091505060019003905f5260205f2090600302015f909190919091505f820151815f0190816104089190610ef1565b50602082015181600101556040820151816002015550503373ffffffffffffffffffffffffffffffffffffffff167fbc158bb64f05d6383aea69bbb0b20c1bbf4b7a18f63359c5649b7c39e29d3884826040516104659190610877565b60405180910390a250565b60015481565b5f5f9054906101000a900473ffffffffffffffffffffffffffffffffffffffff1681565b606060035f3373ffffffffffffffffffffffffffffffffffffffff1673ffffffffffffffffffffffffffffffffffffffff1681526020019081526020015f20805480602002602001604051908101604052809291908181526020015f905b828210156105cb578382905f5260205f2090600302016040518060600160405290815f8201805461052890610d21565b80601f016020809104026020016040519081016040528092919081815260200182805461055490610d21565b801561059f5780601f106105765761010080835404028352916020019161059f565b820191905f5260205f20905b81548152906001019060200180831161058257829003601f168201915b5050505050815260200160018201548152602001600282015481525050815260200190600101906104f8565b50505050905090565b600154341015610619576040517f08c379a00000000000000000000000000000000000000000000000000000000081526004016106109061100a565b60405180910390fd5b3460025f3373ffffffffffffffffffffffffffffffffffffffff1673ffffffffffffffffffffffffffffffffffffffff1681526020019081526020015f205f8282546106659190611028565b9250508190555060035f3373ffffffffffffffffffffffffffffffffffffffff1673ffffffffffffffffffffffffffffffffffffffff1681526020019081526020015f2060405180606001604052806040518060400160405280600781526020017f4465706f73697400000000000000000000000000000000000000000000000000815250815260200134815260200142815250908060018154018082558091505060019003905f5260205f2090600302015f909190919091505f820151815f0190816107329190610ef1565b50602082015181600101556040820151816002015550503373ffffffffffffffffffffffffffffffffffffffff167fd15c9547ea5c06670c0010ce19bc32d54682a4b3801ece7f3ab0c3f17106b4bb3460405161078f9190610877565b60405180910390a2565b6003602052815f5260405f2081815481106107b2575f80fd5b905f5260205f2090600302015f9150915050805f0180546107d290610d21565b80601f01602080910402602001604051908101604052809291908181526020018280546107fe90610d21565b80156108495780601f1061082057610100808354040283529160200191610849565b820191905f5260205f20905b81548152906001019060200180831161082c57829003601f168201915b5050505050908060010154908060020154905083565b5f819050919050565b6108718161085f565b82525050565b5f60208201905061088a5f830184610868565b92915050565b5f5ffd5b5f73ffffffffffffffffffffffffffffffffffffffff82169050919050565b5f6108bd82610894565b9050919050565b6108cd816108b3565b81146108d7575f5ffd5b50565b5f813590506108e8816108c4565b92915050565b5f6020828403121561090357610902610890565b5b5f610910848285016108da565b91505092915050565b6109228161085f565b811461092c575f5ffd5b50565b5f8135905061093d81610919565b92915050565b5f6020828403121561095857610957610890565b5b5f6109658482850161092f565b91505092915050565b610977816108b3565b82525050565b5f6020820190506109905f83018461096e565b92915050565b5f81519050919050565b5f82825260208201905092915050565b5f819050602082019050919050565b5f81519050919050565b5f82825260208201905092915050565b8281835e5f83830152505050565b5f601f19601f8301169050919050565b5f610a01826109bf565b610a0b81856109c9565b9350610a1b8185602086016109d9565b610a24816109e7565b840191505092915050565b610a388161085f565b82525050565b5f606083015f8301518482035f860152610a5882826109f7565b9150506020830151610a6d6020860182610a2f565b506040830151610a806040860182610a2f565b508091505092915050565b5f610a968383610a3e565b905092915050565b5f602082019050919050565b5f610ab482610996565b610abe81856109a0565b935083602082028501610ad0856109b0565b805f5b85811015610b0b5784840389528151610aec8582610a8b565b9450610af783610a9e565b925060208a01995050600181019050610ad3565b50829750879550505050505092915050565b5f6020820190508181035f830152610b358184610aaa565b905092915050565b5f5f60408385031215610b5357610b52610890565b5b5f610b60858286016108da565b9250506020610b718582860161092f565b9150509250929050565b5f82825260208201905092915050565b5f610b95826109bf565b610b9f8185610b7b565b9350610baf8185602086016109d9565b610bb8816109e7565b840191505092915050565b5f6060820190508181035f830152610bdb8186610b8b565b9050610bea6020830185610868565b610bf76040830184610868565b949350505050565b7f496e73756666696369656e742062616c616e63650000000000000000000000005f82015250565b5f610c33601483610b7b565b9150610c3e82610bff565b602082019050919050565b5f6020820190508181035f830152610c6081610c27565b9050919050565b7f4e487b71000000000000000000000000000000000000000000000000000000005f52601160045260245ffd5b5f610c9e8261085f565b9150610ca98361085f565b9250828203905081811115610cc157610cc0610c67565b5b92915050565b7f4e487b71000000000000000000000000000000000000000000000000000000005f52604160045260245ffd5b7f4e487b71000000000000000000000000000000000000000000000000000000005f52602260045260245ffd5b5f6002820490506001821680610d3857607f821691505b602082108103610d4b57610d4a610cf4565b5b50919050565b5f819050815f5260205f209050919050565b5f6020601f8301049050919050565b5f82821b905092915050565b5f60088302610dad7fffffffffffffffffffffffffffffffffffffffffffffffffffffffffffffffff82610d72565b610db78683610d72565b95508019841693508086168417925050509392505050565b5f819050919050565b5f610df2610ded610de88461085f565b610dcf565b61085f565b9050919050565b5f819050919050565b610e0b83610dd8565b610e1f610e1782610df9565b848454610d7e565b825550505050565b5f5f905090565b610e36610e27565b610e41818484610e02565b505050565b5b81811015610e6457610e595f82610e2e565b600181019050610e47565b5050565b601f821115610ea957610e7a81610d51565b610e8384610d63565b81016020851015610e92578190505b610ea6610e9e85610d63565b830182610e46565b50505b505050565b5f82821c905092915050565b5f610ec95f1984600802610eae565b1980831691505092915050565b5f610ee18383610eba565b9150826002028217905092915050565b610efa826109bf565b67ffffffffffffffff811115610f1357610f12610cc7565b5b610f1d8254610d21565b610f28828285610e68565b5f60209050601f831160018114610f59575f8415610f47578287015190505b610f518582610ed6565b865550610fb8565b601f198416610f6786610d51565b5f5b82811015610f8e57848901518255600182019150602085019450602081019050610f69565b86831015610fab5784890151610fa7601f891682610eba565b8355505b6001600288020188555050505b505050505050565b7f4465706f73697420616d6f756e7420697320746f6f206c6f77000000000000005f82015250565b5f610ff4601983610b7b565b9150610fff82610fc0565b602082019050919050565b5f6020820190508181035f83015261102181610fe8565b9050919050565b5f6110328261085f565b915061103d8361085f565b925082820190508082111561105557611054610c67565b5b9291505056fea264697066735822122082ed0a1443a5942a53bad843a57e64df2fd33097e831632049e458b00b9599ca64736f6c634300081f0033",
					"opcodes": "PUSH1 0x80 PUSH1 0x40 MSTORE PUSH7 0x2386F26FC10000 PUSH1 0x1 SSTORE CALLVALUE DUP1 ISZERO PUSH1 0x19 JUMPI PUSH0 PUSH0 REVERT JUMPDEST POP CALLER PUSH0 PUSH0 PUSH2 0x100 EXP DUP2 SLOAD DUP2 PUSH20 0xFFFFFFFFFFFFFFFFFFFFFFFFFFFFFFFFFFFFFFFF MUL NOT AND SWAP1 DUP4 PUSH20 0xFFFFFFFFFFFFFFFFFFFFFFFFFFFFFFFFFFFFFFFF AND MUL OR SWAP1 SSTORE POP PUSH2 0x1091 DUP1 PUSH2 0x66 PUSH0 CODECOPY PUSH0 RETURN INVALID PUSH1 0x80 PUSH1 0x40 MSTORE PUSH1 0x4 CALLDATASIZE LT PUSH2 0x7A JUMPI PUSH0 CALLDATALOAD PUSH1 0xE0 SHR DUP1 PUSH4 0x8DA5CB5B GT PUSH2 0x4D JUMPI DUP1 PUSH4 0x8DA5CB5B EQ PUSH2 0x136 JUMPI DUP1 PUSH4 0xAA15EFC8 EQ PUSH2 0x160 JUMPI DUP1 PUSH4 0xD0E30DB0 EQ PUSH2 0x18A JUMPI DUP1 PUSH4 0xE3ABC2BC EQ PUSH2 0x194 JUMPI PUSH2 0x7A JUMP JUMPDEST DUP1 PUSH4 0x12065FE0 EQ PUSH2 0x7E JUMPI DUP1 PUSH4 0x27E235E3 EQ PUSH2 0xA8 JUMPI DUP1 PUSH4 0x2E1A7D4D EQ PUSH2 0xE4 JUMPI DUP1 PUSH4 0x41B3D185 EQ PUSH2 0x10C JUMPI JUMPDEST PUSH0 PUSH0 REVERT JUMPDEST CALLVALUE DUP1 ISZERO PUSH2 0x89 JUMPI PUSH0 PUSH0 REVERT JUMPDEST POP PUSH2 0x92 PUSH2 0x1D2 JUMP JUMPDEST PUSH1 0x40 MLOAD PUSH2 0x9F SWAP2 SWAP1 PUSH2 0x877 JUMP JUMPDEST PUSH1 0x40 MLOAD DUP1 SWAP2 SUB SWAP1 RETURN JUMPDEST CALLVALUE DUP1 ISZERO PUSH2 0xB3 JUMPI PUSH0 PUSH0 REVERT JUMPDEST POP PUSH2 0xCE PUSH1 0x4 DUP1 CALLDATASIZE SUB DUP2 ADD SWAP1 PUSH2 0xC9 SWAP2 SWAP1 PUSH2 0x8EE JUMP JUMPDEST PUSH2 0x216 JUMP JUMPDEST PUSH1 0x40 MLOAD PUSH2 0xDB SWAP2 SWAP1 PUSH2 0x877 JUMP JUMPDEST PUSH1 0x40 MLOAD DUP1 SWAP2 SUB SWAP1 RETURN JUMPDEST CALLVALUE DUP1 ISZERO PUSH2 0xEF JUMPI PUSH0 PUSH0 REVERT JUMPDEST POP PUSH2 0x10A PUSH1 0x4 DUP1 CALLDATASIZE SUB DUP2 ADD SWAP1 PUSH2 0x105 SWAP2 SWAP1 PUSH2 0x943 JUMP JUMPDEST PUSH2 0x22B JUMP JUMPDEST STOP JUMPDEST CALLVALUE DUP1 ISZERO PUSH2 0x117 JUMPI PUSH0 PUSH0 REVERT JUMPDEST POP PUSH2 0x120 PUSH2 0x470 JUMP JUMPDEST PUSH1 0x40 MLOAD PUSH2 0x12D SWAP2 SWAP1 PUSH2 0x877 JUMP JUMPDEST PUSH1 0x40 MLOAD DUP1 SWAP2 SUB SWAP1 RETURN JUMPDEST CALLVALUE DUP1 ISZERO PUSH2 0x141 JUMPI PUSH0 PUSH0 REVERT JUMPDEST POP PUSH2 0x14A PUSH2 0x476 JUMP JUMPDEST PUSH1 0x40 MLOAD PUSH2 0x157 SWAP2 SWAP1 PUSH2 0x97D JUMP JUMPDEST PUSH1 0x40 MLOAD DUP1 SWAP2 SUB SWAP1 RETURN JUMPDEST CALLVALUE DUP1 ISZERO PUSH2 0x16B JUMPI PUSH0 PUSH0 REVERT JUMPDEST POP PUSH2 0x174 PUSH2 0x49A JUMP JUMPDEST PUSH1 0x40 MLOAD PUSH2 0x181 SWAP2 SWAP1 PUSH2 0xB1D JUMP JUMPDEST PUSH1 0x40 MLOAD DUP1 SWAP2 SUB SWAP1 RETURN JUMPDEST PUSH2 0x192 PUSH2 0x5D4 JUMP JUMPDEST STOP JUMPDEST CALLVALUE DUP1 ISZERO PUSH2 0x19F JUMPI PUSH0 PUSH0 REVERT JUMPDEST POP PUSH2 0x1BA PUSH1 0x4 DUP1 CALLDATASIZE SUB DUP2 ADD SWAP1 PUSH2 0x1B5 SWAP2 SWAP1 PUSH2 0xB3D JUMP JUMPDEST PUSH2 0x799 JUMP JUMPDEST PUSH1 0x40 MLOAD PUSH2 0x1C9 SWAP4 SWAP3 SWAP2 SWAP1 PUSH2 0xBC3 JUMP JUMPDEST PUSH1 0x40 MLOAD DUP1 SWAP2 SUB SWAP1 RETURN JUMPDEST PUSH0 PUSH1 0x2 PUSH0 CALLER PUSH20 0xFFFFFFFFFFFFFFFFFFFFFFFFFFFFFFFFFFFFFFFF AND PUSH20 0xFFFFFFFFFFFFFFFFFFFFFFFFFFFFFFFFFFFFFFFF AND DUP2 MSTORE PUSH1 0x20 ADD SWAP1 DUP2 MSTORE PUSH1 0x20 ADD PUSH0 KECCAK256 SLOAD SWAP1 POP SWAP1 JUMP JUMPDEST PUSH1 0x2 PUSH1 0x20 MSTORE DUP1 PUSH0 MSTORE PUSH1 0x40 PUSH0 KECCAK256 PUSH0 SWAP2 POP SWAP1 POP SLOAD DUP2 JUMP JUMPDEST DUP1 PUSH1 0x2 PUSH0 CALLER PUSH20 0xFFFFFFFFFFFFFFFFFFFFFFFFFFFFFFFFFFFFFFFF AND PUSH20 0xFFFFFFFFFFFFFFFFFFFFFFFFFFFFFFFFFFFFFFFF AND DUP2 MSTORE PUSH1 0x20 ADD SWAP1 DUP2 MSTORE PUSH1 0x20 ADD PUSH0 KECCAK256 SLOAD LT ISZERO PUSH2 0x2AB JUMPI PUSH1 0x40 MLOAD PUSH32 0x8C379A000000000000000000000000000000000000000000000000000000000 DUP2 MSTORE PUSH1 0x4 ADD PUSH2 0x2A2 SWAP1 PUSH2 0xC49 JUMP JUMPDEST PUSH1 0x40 MLOAD DUP1 SWAP2 SUB SWAP1 REVERT JUMPDEST DUP1 PUSH1 0x2 PUSH0 CALLER PUSH20 0xFFFFFFFFFFFFFFFFFFFFFFFFFFFFFFFFFFFFFFFF AND PUSH20 0xFFFFFFFFFFFFFFFFFFFFFFFFFFFFFFFFFFFFFFFF AND DUP2 MSTORE PUSH1 0x20 ADD SWAP1 DUP2 MSTORE PUSH1 0x20 ADD PUSH0 KECCAK256 PUSH0 DUP3 DUP3 SLOAD PUSH2 0x2F7 SWAP2 SWAP1 PUSH2 0xC94 JUMP JUMPDEST SWAP3 POP POP DUP2 SWAP1 SSTORE POP CALLER PUSH20 0xFFFFFFFFFFFFFFFFFFFFFFFFFFFFFFFFFFFFFFFF AND PUSH2 0x8FC DUP3 SWAP1 DUP2 ISZERO MUL SWAP1 PUSH1 0x40 MLOAD PUSH0 PUSH1 0x40 MLOAD DUP1 DUP4 SUB DUP2 DUP6 DUP9 DUP9 CALL SWAP4 POP POP POP POP ISZERO DUP1 ISZERO PUSH2 0x341 JUMPI RETURNDATASIZE PUSH0 PUSH0 RETURNDATACOPY RETURNDATASIZE PUSH0 REVERT JUMPDEST POP PUSH1 0x3 PUSH0 CALLER PUSH20 0xFFFFFFFFFFFFFFFFFFFFFFFFFFFFFFFFFFFFFFFF AND PUSH20 0xFFFFFFFFFFFFFFFFFFFFFFFFFFFFFFFFFFFFFFFF AND DUP2 MSTORE PUSH1 0x20 ADD SWAP1 DUP2 MSTORE PUSH1 0x20 ADD PUSH0 KECCAK256 PUSH1 0x40 MLOAD DUP1 PUSH1 0x60 ADD PUSH1 0x40 MSTORE DUP1 PUSH1 0x40 MLOAD DUP1 PUSH1 0x40 ADD PUSH1 0x40 MSTORE DUP1 PUSH1 0xA DUP2 MSTORE PUSH1 0x20 ADD PUSH32 0x5769746864726177616C00000000000000000000000000000000000000000000 DUP2 MSTORE POP DUP2 MSTORE PUSH1 0x20 ADD DUP4 DUP2 MSTORE PUSH1 0x20 ADD TIMESTAMP DUP2 MSTORE POP SWAP1 DUP1 PUSH1 0x1 DUP2 SLOAD ADD DUP1 DUP3 SSTORE DUP1 SWAP2 POP POP PUSH1 0x1 SWAP1 SUB SWAP1 PUSH0 MSTORE PUSH1 0x20 PUSH0 KECCAK256 SWAP1 PUSH1 0x3 MUL ADD PUSH0 SWAP1 SWAP2 SWAP1 SWAP2 SWAP1 SWAP2 POP PUSH0 DUP3 ADD MLOAD DUP2 PUSH0 ADD SWAP1 DUP2 PUSH2 0x408 SWAP2 SWAP1 PUSH2 0xEF1 JUMP JUMPDEST POP PUSH1 0x20 DUP3 ADD MLOAD DUP2 PUSH1 0x1 ADD SSTORE PUSH1 0x40 DUP3 ADD MLOAD DUP2 PUSH1 0x2 ADD SSTORE POP POP CALLER PUSH20 0xFFFFFFFFFFFFFFFFFFFFFFFFFFFFFFFFFFFFFFFF AND PUSH32 0xBC158BB64F05D6383AEA69BBB0B20C1BBF4B7A18F63359C5649B7C39E29D3884 DUP3 PUSH1 0x40 MLOAD PUSH2 0x465 SWAP2 SWAP1 PUSH2 0x877 JUMP JUMPDEST PUSH1 0x40 MLOAD DUP1 SWAP2 SUB SWAP1 LOG2 POP JUMP JUMPDEST PUSH1 0x1 SLOAD DUP2 JUMP JUMPDEST PUSH0 PUSH0 SWAP1 SLOAD SWAP1 PUSH2 0x100 EXP SWAP1 DIV PUSH20 0xFFFFFFFFFFFFFFFFFFFFFFFFFFFFFFFFFFFFFFFF AND DUP2 JUMP JUMPDEST PUSH1 0x60 PUSH1 0x3 PUSH0 CALLER PUSH20 0xFFFFFFFFFFFFFFFFFFFFFFFFFFFFFFFFFFFFFFFF AND PUSH20 0xFFFFFFFFFFFFFFFFFFFFFFFFFFFFFFFFFFFFFFFF AND DUP2 MSTORE PUSH1 0x20 ADD SWAP1 DUP2 MSTORE PUSH1 0x20 ADD PUSH0 KECCAK256 DUP1 SLOAD DUP1 PUSH1 0x20 MUL PUSH1 0x20 ADD PUSH1 0x40 MLOAD SWAP1 DUP2 ADD PUSH1 0x40 MSTORE DUP1 SWAP3 SWAP2 SWAP1 DUP2 DUP2 MSTORE PUSH1 0x20 ADD PUSH0 SWAP1 JUMPDEST DUP3 DUP3 LT ISZERO PUSH2 0x5CB JUMPI DUP4 DUP3 SWAP1 PUSH0 MSTORE PUSH1 0x20 PUSH0 KECCAK256 SWAP1 PUSH1 0x3 MUL ADD PUSH1 0x40 MLOAD DUP1 PUSH1 0x60 ADD PUSH1 0x40 MSTORE SWAP1 DUP2 PUSH0 DUP3 ADD DUP1 SLOAD PUSH2 0x528 SWAP1 PUSH2 0xD21 JUMP JUMPDEST DUP1 PUSH1 0x1F ADD PUSH1 0x20 DUP1 SWAP2 DIV MUL PUSH1 0x20 ADD PUSH1 0x40 MLOAD SWAP1 DUP2 ADD PUSH1 0x40 MSTORE DUP1 SWAP3 SWAP2 SWAP1 DUP2 DUP2 MSTORE PUSH1 0x20 ADD DUP3 DUP1 SLOAD PUSH2 0x554 SWAP1 PUSH2 0xD21 JUMP JUMPDEST DUP1 ISZERO PUSH2 0x59F JUMPI DUP1 PUSH1 0x1F LT PUSH2 0x576 JUMPI PUSH2 0x100 DUP1 DUP4 SLOAD DIV MUL DUP4 MSTORE SWAP2 PUSH1 0x20 ADD SWAP2 PUSH2 0x59F JUMP JUMPDEST DUP3 ADD SWAP2 SWAP1 PUSH0 MSTORE PUSH1 0x20 PUSH0 KECCAK256 SWAP1 JUMPDEST DUP2 SLOAD DUP2 MSTORE SWAP1 PUSH1 0x1 ADD SWAP1 PUSH1 0x20 ADD DUP1 DUP4 GT PUSH2 0x582 JUMPI DUP3 SWAP1 SUB PUSH1 0x1F AND DUP3 ADD SWAP2 JUMPDEST POP POP POP POP POP DUP2 MSTORE PUSH1 0x20 ADD PUSH1 0x1 DUP3 ADD SLOAD DUP2 MSTORE PUSH1 0x20 ADD PUSH1 0x2 DUP3 ADD SLOAD DUP2 MSTORE POP POP DUP2 MSTORE PUSH1 0x20 ADD SWAP1 PUSH1 0x1 ADD SWAP1 PUSH2 0x4F8 JUMP JUMPDEST POP POP POP POP SWAP1 POP SWAP1 JUMP JUMPDEST PUSH1 0x1 SLOAD CALLVALUE LT ISZERO PUSH2 0x619 JUMPI PUSH1 0x40 MLOAD PUSH32 0x8C379A000000000000000000000000000000000000000000000000000000000 DUP2 MSTORE PUSH1 0x4 ADD PUSH2 0x610 SWAP1 PUSH2 0x100A JUMP JUMPDEST PUSH1 0x40 MLOAD DUP1 SWAP2 SUB SWAP1 REVERT JUMPDEST CALLVALUE PUSH1 0x2 PUSH0 CALLER PUSH20 0xFFFFFFFFFFFFFFFFFFFFFFFFFFFFFFFFFFFFFFFF AND PUSH20 0xFFFFFFFFFFFFFFFFFFFFFFFFFFFFFFFFFFFFFFFF AND DUP2 MSTORE PUSH1 0x20 ADD SWAP1 DUP2 MSTORE PUSH1 0x20 ADD PUSH0 KECCAK256 PUSH0 DUP3 DUP3 SLOAD PUSH2 0x665 SWAP2 SWAP1 PUSH2 0x1028 JUMP JUMPDEST SWAP3 POP POP DUP2 SWAP1 SSTORE POP PUSH1 0x3 PUSH0 CALLER PUSH20 0xFFFFFFFFFFFFFFFFFFFFFFFFFFFFFFFFFFFFFFFF AND PUSH20 0xFFFFFFFFFFFFFFFFFFFFFFFFFFFFFFFFFFFFFFFF AND DUP2 MSTORE PUSH1 0x20 ADD SWAP1 DUP2 MSTORE PUSH1 0x20 ADD PUSH0 KECCAK256 PUSH1 0x40 MLOAD DUP1 PUSH1 0x60 ADD PUSH1 0x40 MSTORE DUP1 PUSH1 0x40 MLOAD DUP1 PUSH1 0x40 ADD PUSH1 0x40 MSTORE DUP1 PUSH1 0x7 DUP2 MSTORE PUSH1 0x20 ADD PUSH32 0x4465706F73697400000000000000000000000000000000000000000000000000 DUP2 MSTORE POP DUP2 MSTORE PUSH1 0x20 ADD CALLVALUE DUP2 MSTORE PUSH1 0x20 ADD TIMESTAMP DUP2 MSTORE POP SWAP1 DUP1 PUSH1 0x1 DUP2 SLOAD ADD DUP1 DUP3 SSTORE DUP1 SWAP2 POP POP PUSH1 0x1 SWAP1 SUB SWAP1 PUSH0 MSTORE PUSH1 0x20 PUSH0 KECCAK256 SWAP1 PUSH1 0x3 MUL ADD PUSH0 SWAP1 SWAP2 SWAP1 SWAP2 SWAP1 SWAP2 POP PUSH0 DUP3 ADD MLOAD DUP2 PUSH0 ADD SWAP1 DUP2 PUSH2 0x732 SWAP2 SWAP1 PUSH2 0xEF1 JUMP JUMPDEST POP PUSH1 0x20 DUP3 ADD MLOAD DUP2 PUSH1 0x1 ADD SSTORE PUSH1 0x40 DUP3 ADD MLOAD DUP2 PUSH1 0x2 ADD SSTORE POP POP CALLER PUSH20 0xFFFFFFFFFFFFFFFFFFFFFFFFFFFFFFFFFFFFFFFF AND PUSH32 0xD15C9547EA5C06670C0010CE19BC32D54682A4B3801ECE7F3AB0C3F17106B4BB CALLVALUE PUSH1 0x40 MLOAD PUSH2 0x78F SWAP2 SWAP1 PUSH2 0x877 JUMP JUMPDEST PUSH1 0x40 MLOAD DUP1 SWAP2 SUB SWAP1 LOG2 JUMP JUMPDEST PUSH1 0x3 PUSH1 0x20 MSTORE DUP2 PUSH0 MSTORE PUSH1 0x40 PUSH0 KECCAK256 DUP2 DUP2 SLOAD DUP2 LT PUSH2 0x7B2 JUMPI PUSH0 DUP1 REVERT JUMPDEST SWAP1 PUSH0 MSTORE PUSH1 0x20 PUSH0 KECCAK256 SWAP1 PUSH1 0x3 MUL ADD PUSH0 SWAP2 POP SWAP2 POP POP DUP1 PUSH0 ADD DUP1 SLOAD PUSH2 0x7D2 SWAP1 PUSH2 0xD21 JUMP JUMPDEST DUP1 PUSH1 0x1F ADD PUSH1 0x20 DUP1 SWAP2 DIV MUL PUSH1 0x20 ADD PUSH1 0x40 MLOAD SWAP1 DUP2 ADD PUSH1 0x40 MSTORE DUP1 SWAP3 SWAP2 SWAP1 DUP2 DUP2 MSTORE PUSH1 0x20 ADD DUP3 DUP1 SLOAD PUSH2 0x7FE SWAP1 PUSH2 0xD21 JUMP JUMPDEST DUP1 ISZERO PUSH2 0x849 JUMPI DUP1 PUSH1 0x1F LT PUSH2 0x820 JUMPI PUSH2 0x100 DUP1 DUP4 SLOAD DIV MUL DUP4 MSTORE SWAP2 PUSH1 0x20 ADD SWAP2 PUSH2 0x849 JUMP JUMPDEST DUP3 ADD SWAP2 SWAP1 PUSH0 MSTORE PUSH1 0x20 PUSH0 KECCAK256 SWAP1 JUMPDEST DUP2 SLOAD DUP2 MSTORE SWAP1 PUSH1 0x1 ADD SWAP1 PUSH1 0x20 ADD DUP1 DUP4 GT PUSH2 0x82C JUMPI DUP3 SWAP1 SUB PUSH1 0x1F AND DUP3 ADD SWAP2 JUMPDEST POP POP POP POP POP SWAP1 DUP1 PUSH1 0x1 ADD SLOAD SWAP1 DUP1 PUSH1 0x2 ADD SLOAD SWAP1 POP DUP4 JUMP JUMPDEST PUSH0 DUP2 SWAP1 POP SWAP2 SWAP1 POP JUMP JUMPDEST PUSH2 0x871 DUP2 PUSH2 0x85F JUMP JUMPDEST DUP3 MSTORE POP POP JUMP JUMPDEST PUSH0 PUSH1 0x20 DUP3 ADD SWAP1 POP PUSH2 0x88A PUSH0 DUP4 ADD DUP5 PUSH2 0x868 JUMP JUMPDEST SWAP3 SWAP2 POP POP JUMP JUMPDEST PUSH0 PUSH0 REVERT JUMPDEST PUSH0 PUSH20 0xFFFFFFFFFFFFFFFFFFFFFFFFFFFFFFFFFFFFFFFF DUP3 AND SWAP1 POP SWAP2 SWAP1 POP JUMP JUMPDEST PUSH0 PUSH2 0x8BD DUP3 PUSH2 0x894 JUMP JUMPDEST SWAP1 POP SWAP2 SWAP1 POP JUMP JUMPDEST PUSH2 0x8CD DUP2 PUSH2 0x8B3 JUMP JUMPDEST DUP2 EQ PUSH2 0x8D7 JUMPI PUSH0 PUSH0 REVERT JUMPDEST POP JUMP JUMPDEST PUSH0 DUP2 CALLDATALOAD SWAP1 POP PUSH2 0x8E8 DUP2 PUSH2 0x8C4 JUMP JUMPDEST SWAP3 SWAP2 POP POP JUMP JUMPDEST PUSH0 PUSH1 0x20 DUP3 DUP5 SUB SLT ISZERO PUSH2 0x903 JUMPI PUSH2 0x902 PUSH2 0x890 JUMP JUMPDEST JUMPDEST PUSH0 PUSH2 0x910 DUP5 DUP3 DUP6 ADD PUSH2 0x8DA JUMP JUMPDEST SWAP2 POP POP SWAP3 SWAP2 POP POP JUMP JUMPDEST PUSH2 0x922 DUP2 PUSH2 0x85F JUMP JUMPDEST DUP2 EQ PUSH2 0x92C JUMPI PUSH0 PUSH0 REVERT JUMPDEST POP JUMP JUMPDEST PUSH0 DUP2 CALLDATALOAD SWAP1 POP PUSH2 0x93D DUP2 PUSH2 0x919 JUMP JUMPDEST SWAP3 SWAP2 POP POP JUMP JUMPDEST PUSH0 PUSH1 0x20 DUP3 DUP5 SUB SLT ISZERO PUSH2 0x958 JUMPI PUSH2 0x957 PUSH2 0x890 JUMP JUMPDEST JUMPDEST PUSH0 PUSH2 0x965 DUP5 DUP3 DUP6 ADD PUSH2 0x92F JUMP JUMPDEST SWAP2 POP POP SWAP3 SWAP2 POP POP JUMP JUMPDEST PUSH2 0x977 DUP2 PUSH2 0x8B3 JUMP JUMPDEST DUP3 MSTORE POP POP JUMP JUMPDEST PUSH0 PUSH1 0x20 DUP3 ADD SWAP1 POP PUSH2 0x990 PUSH0 DUP4 ADD DUP5 PUSH2 0x96E JUMP JUMPDEST SWAP3 SWAP2 POP POP JUMP JUMPDEST PUSH0 DUP2 MLOAD SWAP1 POP SWAP2 SWAP1 POP JUMP JUMPDEST PUSH0 DUP3 DUP3 MSTORE PUSH1 0x20 DUP3 ADD SWAP1 POP SWAP3 SWAP2 POP POP JUMP JUMPDEST PUSH0 DUP2 SWAP1 POP PUSH1 0x20 DUP3 ADD SWAP1 POP SWAP2 SWAP1 POP JUMP JUMPDEST PUSH0 DUP2 MLOAD SWAP1 POP SWAP2 SWAP1 POP JUMP JUMPDEST PUSH0 DUP3 DUP3 MSTORE PUSH1 0x20 DUP3 ADD SWAP1 POP SWAP3 SWAP2 POP POP JUMP JUMPDEST DUP3 DUP2 DUP4 MCOPY PUSH0 DUP4 DUP4 ADD MSTORE POP POP POP JUMP JUMPDEST PUSH0 PUSH1 0x1F NOT PUSH1 0x1F DUP4 ADD AND SWAP1 POP SWAP2 SWAP1 POP JUMP JUMPDEST PUSH0 PUSH2 0xA01 DUP3 PUSH2 0x9BF JUMP JUMPDEST PUSH2 0xA0B DUP2 DUP6 PUSH2 0x9C9 JUMP JUMPDEST SWAP4 POP PUSH2 0xA1B DUP2 DUP6 PUSH1 0x20 DUP7 ADD PUSH2 0x9D9 JUMP JUMPDEST PUSH2 0xA24 DUP2 PUSH2 0x9E7 JUMP JUMPDEST DUP5 ADD SWAP2 POP POP SWAP3 SWAP2 POP POP JUMP JUMPDEST PUSH2 0xA38 DUP2 PUSH2 0x85F JUMP JUMPDEST DUP3 MSTORE POP POP JUMP JUMPDEST PUSH0 PUSH1 0x60 DUP4 ADD PUSH0 DUP4 ADD MLOAD DUP5 DUP3 SUB PUSH0 DUP7 ADD MSTORE PUSH2 0xA58 DUP3 DUP3 PUSH2 0x9F7 JUMP JUMPDEST SWAP2 POP POP PUSH1 0x20 DUP4 ADD MLOAD PUSH2 0xA6D PUSH1 0x20 DUP7 ADD DUP3 PUSH2 0xA2F JUMP JUMPDEST POP PUSH1 0x40 DUP4 ADD MLOAD PUSH2 0xA80 PUSH1 0x40 DUP7 ADD DUP3 PUSH2 0xA2F JUMP JUMPDEST POP DUP1 SWAP2 POP POP SWAP3 SWAP2 POP POP JUMP JUMPDEST PUSH0 PUSH2 0xA96 DUP4 DUP4 PUSH2 0xA3E JUMP JUMPDEST SWAP1 POP SWAP3 SWAP2 POP POP JUMP JUMPDEST PUSH0 PUSH1 0x20 DUP3 ADD SWAP1 POP SWAP2 SWAP1 POP JUMP JUMPDEST PUSH0 PUSH2 0xAB4 DUP3 PUSH2 0x996 JUMP JUMPDEST PUSH2 0xABE DUP2 DUP6 PUSH2 0x9A0 JUMP JUMPDEST SWAP4 POP DUP4 PUSH1 0x20 DUP3 MUL DUP6 ADD PUSH2 0xAD0 DUP6 PUSH2 0x9B0 JUMP JUMPDEST DUP1 PUSH0 JUMPDEST DUP6 DUP2 LT ISZERO PUSH2 0xB0B JUMPI DUP5 DUP5 SUB DUP10 MSTORE DUP2 MLOAD PUSH2 0xAEC DUP6 DUP3 PUSH2 0xA8B JUMP JUMPDEST SWAP5 POP PUSH2 0xAF7 DUP4 PUSH2 0xA9E JUMP JUMPDEST SWAP3 POP PUSH1 0x20 DUP11 ADD SWAP10 POP POP PUSH1 0x1 DUP2 ADD SWAP1 POP PUSH2 0xAD3 JUMP JUMPDEST POP DUP3 SWAP8 POP DUP8 SWAP6 POP POP POP POP POP POP SWAP3 SWAP2 POP POP JUMP JUMPDEST PUSH0 PUSH1 0x20 DUP3 ADD SWAP1 POP DUP2 DUP2 SUB PUSH0 DUP4 ADD MSTORE PUSH2 0xB35 DUP2 DUP5 PUSH2 0xAAA JUMP JUMPDEST SWAP1 POP SWAP3 SWAP2 POP POP JUMP JUMPDEST PUSH0 PUSH0 PUSH1 0x40 DUP4 DUP6 SUB SLT ISZERO PUSH2 0xB53 JUMPI PUSH2 0xB52 PUSH2 0x890 JUMP JUMPDEST JUMPDEST PUSH0 PUSH2 0xB60 DUP6 DUP3 DUP7 ADD PUSH2 0x8DA JUMP JUMPDEST SWAP3 POP POP PUSH1 0x20 PUSH2 0xB71 DUP6 DUP3 DUP7 ADD PUSH2 0x92F JUMP JUMPDEST SWAP2 POP POP SWAP3 POP SWAP3 SWAP1 POP JUMP JUMPDEST PUSH0 DUP3 DUP3 MSTORE PUSH1 0x20 DUP3 ADD SWAP1 POP SWAP3 SWAP2 POP POP JUMP JUMPDEST PUSH0 PUSH2 0xB95 DUP3 PUSH2 0x9BF JUMP JUMPDEST PUSH2 0xB9F DUP2 DUP6 PUSH2 0xB7B JUMP JUMPDEST SWAP4 POP PUSH2 0xBAF DUP2 DUP6 PUSH1 0x20 DUP7 ADD PUSH2 0x9D9 JUMP JUMPDEST PUSH2 0xBB8 DUP2 PUSH2 0x9E7 JUMP JUMPDEST DUP5 ADD SWAP2 POP POP SWAP3 SWAP2 POP POP JUMP JUMPDEST PUSH0 PUSH1 0x60 DUP3 ADD SWAP1 POP DUP2 DUP2 SUB PUSH0 DUP4 ADD MSTORE PUSH2 0xBDB DUP2 DUP7 PUSH2 0xB8B JUMP JUMPDEST SWAP1 POP PUSH2 0xBEA PUSH1 0x20 DUP4 ADD DUP6 PUSH2 0x868 JUMP JUMPDEST PUSH2 0xBF7 PUSH1 0x40 DUP4 ADD DUP5 PUSH2 0x868 JUMP JUMPDEST SWAP5 SWAP4 POP POP POP POP JUMP JUMPDEST PUSH32 0x496E73756666696369656E742062616C616E6365000000000000000000000000 PUSH0 DUP3 ADD MSTORE POP JUMP JUMPDEST PUSH0 PUSH2 0xC33 PUSH1 0x14 DUP4 PUSH2 0xB7B JUMP JUMPDEST SWAP2 POP PUSH2 0xC3E DUP3 PUSH2 0xBFF JUMP JUMPDEST PUSH1 0x20 DUP3 ADD SWAP1 POP SWAP2 SWAP1 POP JUMP JUMPDEST PUSH0 PUSH1 0x20 DUP3 ADD SWAP1 POP DUP2 DUP2 SUB PUSH0 DUP4 ADD MSTORE PUSH2 0xC60 DUP2 PUSH2 0xC27 JUMP JUMPDEST SWAP1 POP SWAP2 SWAP1 POP JUMP JUMPDEST PUSH32 0x4E487B7100000000000000000000000000000000000000000000000000000000 PUSH0 MSTORE PUSH1 0x11 PUSH1 0x4 MSTORE PUSH1 0x24 PUSH0 REVERT JUMPDEST PUSH0 PUSH2 0xC9E DUP3 PUSH2 0x85F JUMP JUMPDEST SWAP2 POP PUSH2 0xCA9 DUP4 PUSH2 0x85F JUMP JUMPDEST SWAP3 POP DUP3 DUP3 SUB SWAP1 POP DUP2 DUP2 GT ISZERO PUSH2 0xCC1 JUMPI PUSH2 0xCC0 PUSH2 0xC67 JUMP JUMPDEST JUMPDEST SWAP3 SWAP2 POP POP JUMP JUMPDEST PUSH32 0x4E487B7100000000000000000000000000000000000000000000000000000000 PUSH0 MSTORE PUSH1 0x41 PUSH1 0x4 MSTORE PUSH1 0x24 PUSH0 REVERT JUMPDEST PUSH32 0x4E487B7100000000000000000000000000000000000000000000000000000000 PUSH0 MSTORE PUSH1 0x22 PUSH1 0x4 MSTORE PUSH1 0x24 PUSH0 REVERT JUMPDEST PUSH0 PUSH1 0x2 DUP3 DIV SWAP1 POP PUSH1 0x1 DUP3 AND DUP1 PUSH2 0xD38 JUMPI PUSH1 0x7F DUP3 AND SWAP2 POP JUMPDEST PUSH1 0x20 DUP3 LT DUP2 SUB PUSH2 0xD4B JUMPI PUSH2 0xD4A PUSH2 0xCF4 JUMP JUMPDEST JUMPDEST POP SWAP2 SWAP1 POP JUMP JUMPDEST PUSH0 DUP2 SWAP1 POP DUP2 PUSH0 MSTORE PUSH1 0x20 PUSH0 KECCAK256 SWAP1 POP SWAP2 SWAP1 POP JUMP JUMPDEST PUSH0 PUSH1 0x20 PUSH1 0x1F DUP4 ADD DIV SWAP1 POP SWAP2 SWAP1 POP JUMP JUMPDEST PUSH0 DUP3 DUP3 SHL SWAP1 POP SWAP3 SWAP2 POP POP JUMP JUMPDEST PUSH0 PUSH1 0x8 DUP4 MUL PUSH2 0xDAD PUSH32 0xFFFFFFFFFFFFFFFFFFFFFFFFFFFFFFFFFFFFFFFFFFFFFFFFFFFFFFFFFFFFFFFF DUP3 PUSH2 0xD72 JUMP JUMPDEST PUSH2 0xDB7 DUP7 DUP4 PUSH2 0xD72 JUMP JUMPDEST SWAP6 POP DUP1 NOT DUP5 AND SWAP4 POP DUP1 DUP7 AND DUP5 OR SWAP3 POP POP POP SWAP4 SWAP3 POP POP POP JUMP JUMPDEST PUSH0 DUP2 SWAP1 POP SWAP2 SWAP1 POP JUMP JUMPDEST PUSH0 PUSH2 0xDF2 PUSH2 0xDED PUSH2 0xDE8 DUP5 PUSH2 0x85F JUMP JUMPDEST PUSH2 0xDCF JUMP JUMPDEST PUSH2 0x85F JUMP JUMPDEST SWAP1 POP SWAP2 SWAP1 POP JUMP JUMPDEST PUSH0 DUP2 SWAP1 POP SWAP2 SWAP1 POP JUMP JUMPDEST PUSH2 0xE0B DUP4 PUSH2 0xDD8 JUMP JUMPDEST PUSH2 0xE1F PUSH2 0xE17 DUP3 PUSH2 0xDF9 JUMP JUMPDEST DUP5 DUP5 SLOAD PUSH2 0xD7E JUMP JUMPDEST DUP3 SSTORE POP POP POP POP JUMP JUMPDEST PUSH0 PUSH0 SWAP1 POP SWAP1 JUMP JUMPDEST PUSH2 0xE36 PUSH2 0xE27 JUMP JUMPDEST PUSH2 0xE41 DUP2 DUP5 DUP5 PUSH2 0xE02 JUMP JUMPDEST POP POP POP JUMP JUMPDEST JUMPDEST DUP2 DUP2 LT ISZERO PUSH2 0xE64 JUMPI PUSH2 0xE59 PUSH0 DUP3 PUSH2 0xE2E JUMP JUMPDEST PUSH1 0x1 DUP2 ADD SWAP1 POP PUSH2 0xE47 JUMP JUMPDEST POP POP JUMP JUMPDEST PUSH1 0x1F DUP3 GT ISZERO PUSH2 0xEA9 JUMPI PUSH2 0xE7A DUP2 PUSH2 0xD51 JUMP JUMPDEST PUSH2 0xE83 DUP5 PUSH2 0xD63 JUMP JUMPDEST DUP2 ADD PUSH1 0x20 DUP6 LT ISZERO PUSH2 0xE92 JUMPI DUP2 SWAP1 POP JUMPDEST PUSH2 0xEA6 PUSH2 0xE9E DUP6 PUSH2 0xD63 JUMP JUMPDEST DUP4 ADD DUP3 PUSH2 0xE46 JUMP JUMPDEST POP POP JUMPDEST POP POP POP JUMP JUMPDEST PUSH0 DUP3 DUP3 SHR SWAP1 POP SWAP3 SWAP2 POP POP JUMP JUMPDEST PUSH0 PUSH2 0xEC9 PUSH0 NOT DUP5 PUSH1 0x8 MUL PUSH2 0xEAE JUMP JUMPDEST NOT DUP1 DUP4 AND SWAP2 POP POP SWAP3 SWAP2 POP POP JUMP JUMPDEST PUSH0 PUSH2 0xEE1 DUP4 DUP4 PUSH2 0xEBA JUMP JUMPDEST SWAP2 POP DUP3 PUSH1 0x2 MUL DUP3 OR SWAP1 POP SWAP3 SWAP2 POP POP JUMP JUMPDEST PUSH2 0xEFA DUP3 PUSH2 0x9BF JUMP JUMPDEST PUSH8 0xFFFFFFFFFFFFFFFF DUP2 GT ISZERO PUSH2 0xF13 JUMPI PUSH2 0xF12 PUSH2 0xCC7 JUMP JUMPDEST JUMPDEST PUSH2 0xF1D DUP3 SLOAD PUSH2 0xD21 JUMP JUMPDEST PUSH2 0xF28 DUP3 DUP3 DUP6 PUSH2 0xE68 JUMP JUMPDEST PUSH0 PUSH1 0x20 SWAP1 POP PUSH1 0x1F DUP4 GT PUSH1 0x1 DUP2 EQ PUSH2 0xF59 JUMPI PUSH0 DUP5 ISZERO PUSH2 0xF47 JUMPI DUP3 DUP8 ADD MLOAD SWAP1 POP JUMPDEST PUSH2 0xF51 DUP6 DUP3 PUSH2 0xED6 JUMP JUMPDEST DUP7 SSTORE POP PUSH2 0xFB8 JUMP JUMPDEST PUSH1 0x1F NOT DUP5 AND PUSH2 0xF67 DUP7 PUSH2 0xD51 JUMP JUMPDEST PUSH0 JUMPDEST DUP3 DUP2 LT ISZERO PUSH2 0xF8E JUMPI DUP5 DUP10 ADD MLOAD DUP3 SSTORE PUSH1 0x1 DUP3 ADD SWAP2 POP PUSH1 0x20 DUP6 ADD SWAP5 POP PUSH1 0x20 DUP2 ADD SWAP1 POP PUSH2 0xF69 JUMP JUMPDEST DUP7 DUP4 LT ISZERO PUSH2 0xFAB JUMPI DUP5 DUP10 ADD MLOAD PUSH2 0xFA7 PUSH1 0x1F DUP10 AND DUP3 PUSH2 0xEBA JUMP JUMPDEST DUP4 SSTORE POP JUMPDEST PUSH1 0x1 PUSH1 0x2 DUP9 MUL ADD DUP9 SSTORE POP POP POP JUMPDEST POP POP POP POP POP POP JUMP JUMPDEST PUSH32 0x4465706F73697420616D6F756E7420697320746F6F206C6F7700000000000000 PUSH0 DUP3 ADD MSTORE POP JUMP JUMPDEST PUSH0 PUSH2 0xFF4 PUSH1 0x19 DUP4 PUSH2 0xB7B JUMP JUMPDEST SWAP2 POP PUSH2 0xFFF DUP3 PUSH2 0xFC0 JUMP JUMPDEST PUSH1 0x20 DUP3 ADD SWAP1 POP SWAP2 SWAP1 POP JUMP JUMPDEST PUSH0 PUSH1 0x20 DUP3 ADD SWAP1 POP DUP2 DUP2 SUB PUSH0 DUP4 ADD MSTORE PUSH2 0x1021 DUP2 PUSH2 0xFE8 JUMP JUMPDEST SWAP1 POP SWAP2 SWAP1 POP JUMP JUMPDEST PUSH0 PUSH2 0x1032 DUP3 PUSH2 0x85F JUMP JUMPDEST SWAP2 POP PUSH2 0x103D DUP4 PUSH2 0x85F JUMP JUMPDEST SWAP3 POP DUP3 DUP3 ADD SWAP1 POP DUP1 DUP3 GT ISZERO PUSH2 0x1055 JUMPI PUSH2 0x1054 PUSH2 0xC67 JUMP JUMPDEST JUMPDEST SWAP3 SWAP2 POP POP JUMP INVALID LOG2 PUSH5 0x6970667358 0x22 SLT KECCAK256 DUP3 0xED EXP EQ NUMBER 0xA5 SWAP5 0x2A MSTORE8 0xBA 0xD8 NUMBER 0xA5 PUSH31 0x64DF2FD33097E831632049E458B00B9599CA64736F6C634300081F00330000 "
				},
				"gasEstimates": {
					"creation": {
						"codeDepositCost": "848200",
						"executionCost": "47251",
						"totalCost": "895451"
					},
					"external": {
						"balances(address)": "2825",
						"deposit()": "infinite",
						"getBalance()": "2520",
						"getHistory()": "infinite",
						"minDeposit()": "2492",
						"owner()": "2507",
						"transactionHistory(address,uint256)": "infinite",
						"withdraw(uint256)": "infinite"
					}
				},
				"methodIdentifiers": {
					"balances(address)": "27e235e3",
					"deposit()": "d0e30db0",
					"getBalance()": "12065fe0",
					"getHistory()": "aa15efc8",
					"minDeposit()": "41b3d185",
					"owner()": "8da5cb5b",
					"transactionHistory(address,uint256)": "e3abc2bc",
					"withdraw(uint256)": "2e1a7d4d"
				}
			},
			"storageLayout": {
				"storage": [
					{
						"astId": 3,
						"contract": "Mini project/Mini project.sol:StudentSavingsWallet",
						"label": "owner",
						"offset": 0,
						"slot": "0",
						"type": "t_address"
					},
					{
						"astId": 6,
						"contract": "Mini project/Mini project.sol:StudentSavingsWallet",
						"label": "minDeposit",
						"offset": 0,
						"slot": "1",
						"type": "t_uint256"
					},
					{
						"astId": 17,
						"contract": "Mini project/Mini project.sol:StudentSavingsWallet",
						"label": "balances",
						"offset": 0,
						"slot": "2",
						"type": "t_mapping(t_address,t_uint256)"
					},
					{
						"astId": 23,
						"contract": "Mini project/Mini project.sol:StudentSavingsWallet",
						"label": "transactionHistory",
						"offset": 0,
						"slot": "3",
						"type": "t_mapping(t_address,t_array(t_struct(Transaction)13_storage)dyn_storage)"
					}
				],
				"types": {
					"t_address": {
						"encoding": "inplace",
						"label": "address",
						"numberOfBytes": "20"
					},
					"t_array(t_struct(Transaction)13_storage)dyn_storage": {
						"base": "t_struct(Transaction)13_storage",
						"encoding": "dynamic_array",
						"label": "struct StudentSavingsWallet.Transaction[]",
						"numberOfBytes": "32"
					},
					"t_mapping(t_address,t_array(t_struct(Transaction)13_storage)dyn_storage)": {
						"encoding": "mapping",
						"key": "t_address",
						"label": "mapping(address => struct StudentSavingsWallet.Transaction[])",
						"numberOfBytes": "32",
						"value": "t_array(t_struct(Transaction)13_storage)dyn_storage"
					},
					"t_mapping(t_address,t_uint256)": {
						"encoding": "mapping",
						"key": "t_address",
						"label": "mapping(address => uint256)",
						"numberOfBytes": "32",
						"value": "t_uint256"
					},
					"t_string_storage": {
						"encoding": "bytes",
						"label": "string",
						"numberOfBytes": "32"
					},
					"t_struct(Transaction)13_storage": {
						"encoding": "inplace",
						"label": "struct StudentSavingsWallet.Transaction",
						"members": [
							{
								"astId": 8,
								"contract": "Mini project/Mini project.sol:StudentSavingsWallet",
								"label": "txType",
								"offset": 0,
								"slot": "0",
								"type": "t_string_storage"
							},
							{
								"astId": 10,
								"contract": "Mini project/Mini project.sol:StudentSavingsWallet",
								"label": "amount",
								"offset": 0,
								"slot": "1",
								"type": "t_uint256"
							},
							{
								"astId": 12,
								"contract": "Mini project/Mini project.sol:StudentSavingsWallet",
								"label": "timestamp",
								"offset": 0,
								"slot": "2",
								"type": "t_uint256"
							}
						],
						"numberOfBytes": "96"
					},
					"t_uint256": {
						"encoding": "inplace",
						"label": "uint256",
						"numberOfBytes": "32"
					}
				}
			},
			"userdoc": {
				"kind": "user",
				"methods": {},
				"version": 1
			}
		}
	}
}